{
	"data": {
		"bytecode": {
			"linkReferences": {},
			"object": "608060405234801561000f575f80fd5b5060405161392738038061392783398181016040528101906100319190610ada565b806040518060600160405280602681526020016139016026913961005a8161010360201b60201c565b505f73ffffffffffffffffffffffffffffffffffffffff168173ffffffffffffffffffffffffffffffffffffffff16036100cb575f6040517f1e4fbdf70000000000000000000000000000000000000000000000000000000081526004016100c29190610b14565b60405180910390fd5b6100da8161011660201b60201c565b506100fd335f61271060405180602001604052805f8152506101d960201b60201c565b506111a9565b80600290816101129190610d67565b5050565b5f60035f9054906101000a900473ffffffffffffffffffffffffffffffffffffffff1690508160035f6101000a81548173ffffffffffffffffffffffffffffffffffffffff021916908373ffffffffffffffffffffffffffffffffffffffff1602179055508173ffffffffffffffffffffffffffffffffffffffff168173ffffffffffffffffffffffffffffffffffffffff167f8be0079c531659141344cd1fd0a4f28419497f9722a3daafe3b4186f6b6457e060405160405180910390a35050565b5f73ffffffffffffffffffffffffffffffffffffffff168473ffffffffffffffffffffffffffffffffffffffff1603610249575f6040517f57f447ce0000000000000000000000000000000000000000000000000000000081526004016102409190610b14565b60405180910390fd5b5f8061025b858561027a60201b60201c565b915091506102725f878484876102aa60201b60201c565b505050505050565b60608060405191506001825283602083015260408201905060018152826020820152604081016040529250929050565b6102bc8585858561036e60201b60201c565b5f73ffffffffffffffffffffffffffffffffffffffff168473ffffffffffffffffffffffffffffffffffffffff1614610367575f6102fe61070460201b60201c565b90506001845103610350575f61031d5f8661070b60201b90919060201c565b90505f6103335f8661070b60201b90919060201c565b905061034983898985858961071e60201b60201c565b5050610365565b6103648187878787876108cd60201b60201c565b5b505b5050505050565b80518251146103b857815181516040517f5b0599910000000000000000000000000000000000000000000000000000000081526004016103af929190610e45565b60405180910390fd5b5f6103c761070460201b60201c565b90505f5b83518110156105c3575f6103e8828661070b60201b90919060201c565b90505f6103fe838661070b60201b90919060201c565b90505f73ffffffffffffffffffffffffffffffffffffffff168873ffffffffffffffffffffffffffffffffffffffff1614610521575f805f8481526020019081526020015f205f8a73ffffffffffffffffffffffffffffffffffffffff1673ffffffffffffffffffffffffffffffffffffffff1681526020019081526020015f20549050818110156104cd57888183856040517f03dee4c50000000000000000000000000000000000000000000000000000000081526004016104c49493929190610e6c565b60405180910390fd5b8181035f808581526020019081526020015f205f8b73ffffffffffffffffffffffffffffffffffffffff1673ffffffffffffffffffffffffffffffffffffffff1681526020019081526020015f2081905550505b5f73ffffffffffffffffffffffffffffffffffffffff168773ffffffffffffffffffffffffffffffffffffffff16146105b657805f808481526020019081526020015f205f8973ffffffffffffffffffffffffffffffffffffffff1673ffffffffffffffffffffffffffffffffffffffff1681526020019081526020015f205f8282546105ae9190610edc565b925050819055505b50508060010190506103cb565b50600183510361067e575f6105e15f8561070b60201b90919060201c565b90505f6105f75f8561070b60201b90919060201c565b90508573ffffffffffffffffffffffffffffffffffffffff168773ffffffffffffffffffffffffffffffffffffffff168473ffffffffffffffffffffffffffffffffffffffff167fc3d58168c5ae7397731d063d5bbf3d657854427343f4c083240f7aacaa2d0f62858560405161066f929190610e45565b60405180910390a450506106fd565b8373ffffffffffffffffffffffffffffffffffffffff168573ffffffffffffffffffffffffffffffffffffffff168273ffffffffffffffffffffffffffffffffffffffff167f4a39dc06d4c0dbc64b70af90fd698a233a518aa5d07e595d983b8c0526c8f7fb86866040516106f4929190610fc6565b60405180910390a45b5050505050565b5f33905090565b5f60208202602084010151905092915050565b5f8473ffffffffffffffffffffffffffffffffffffffff163b11156108c5578373ffffffffffffffffffffffffffffffffffffffff1663f23a6e6187878686866040518663ffffffff1660e01b815260040161077e95949392919061106b565b6020604051808303815f875af19250505080156107b957506040513d601f19601f820116820180604052508101906107b69190611118565b60015b61083a573d805f81146107e7576040519150601f19603f3d011682016040523d82523d5f602084013e6107ec565b606091505b505f81510361083257846040517f57f447ce0000000000000000000000000000000000000000000000000000000081526004016108299190610b14565b60405180910390fd5b805181602001fd5b63f23a6e6160e01b7bffffffffffffffffffffffffffffffffffffffffffffffffffffffff1916817bffffffffffffffffffffffffffffffffffffffffffffffffffffffff1916146108c357846040517f57f447ce0000000000000000000000000000000000000000000000000000000081526004016108ba9190610b14565b60405180910390fd5b505b505050505050565b5f8473ffffffffffffffffffffffffffffffffffffffff163b1115610a74578373ffffffffffffffffffffffffffffffffffffffff1663bc197c8187878686866040518663ffffffff1660e01b815260040161092d959493929190611143565b6020604051808303815f875af192505050801561096857506040513d601f19601f820116820180604052508101906109659190611118565b60015b6109e9573d805f8114610996576040519150601f19603f3d011682016040523d82523d5f602084013e61099b565b606091505b505f8151036109e157846040517f57f447ce0000000000000000000000000000000000000000000000000000000081526004016109d89190610b14565b60405180910390fd5b805181602001fd5b63bc197c8160e01b7bffffffffffffffffffffffffffffffffffffffffffffffffffffffff1916817bffffffffffffffffffffffffffffffffffffffffffffffffffffffff191614610a7257846040517f57f447ce000000000000000000000000000000000000000000000000000000008152600401610a699190610b14565b60405180910390fd5b505b505050505050565b5f80fd5b5f73ffffffffffffffffffffffffffffffffffffffff82169050919050565b5f610aa982610a80565b9050919050565b610ab981610a9f565b8114610ac3575f80fd5b50565b5f81519050610ad481610ab0565b92915050565b5f60208284031215610aef57610aee610a7c565b5b5f610afc84828501610ac6565b91505092915050565b610b0e81610a9f565b82525050565b5f602082019050610b275f830184610b05565b92915050565b5f81519050919050565b7f4e487b71000000000000000000000000000000000000000000000000000000005f52604160045260245ffd5b7f4e487b71000000000000000000000000000000000000000000000000000000005f52602260045260245ffd5b5f6002820490506001821680610ba857607f821691505b602082108103610bbb57610bba610b64565b5b50919050565b5f819050815f5260205f209050919050565b5f6020601f8301049050919050565b5f82821b905092915050565b5f60088302610c1d7fffffffffffffffffffffffffffffffffffffffffffffffffffffffffffffffff82610be2565b610c278683610be2565b95508019841693508086168417925050509392505050565b5f819050919050565b5f819050919050565b5f610c6b610c66610c6184610c3f565b610c48565b610c3f565b9050919050565b5f819050919050565b610c8483610c51565b610c98610c9082610c72565b848454610bee565b825550505050565b5f90565b610cac610ca0565b610cb7818484610c7b565b505050565b5b81811015610cda57610ccf5f82610ca4565b600181019050610cbd565b5050565b601f821115610d1f57610cf081610bc1565b610cf984610bd3565b81016020851015610d08578190505b610d1c610d1485610bd3565b830182610cbc565b50505b505050565b5f82821c905092915050565b5f610d3f5f1984600802610d24565b1980831691505092915050565b5f610d578383610d30565b9150826002028217905092915050565b610d7082610b2d565b67ffffffffffffffff811115610d8957610d88610b37565b5b610d938254610b91565b610d9e828285610cde565b5f60209050601f831160018114610dcf575f8415610dbd578287015190505b610dc78582610d4c565b865550610e2e565b601f198416610ddd86610bc1565b5f5b82811015610e0457848901518255600182019150602085019450602081019050610ddf565b86831015610e215784890151610e1d601f891682610d30565b8355505b6001600288020188555050505b505050505050565b610e3f81610c3f565b82525050565b5f604082019050610e585f830185610e36565b610e656020830184610e36565b9392505050565b5f608082019050610e7f5f830187610b05565b610e8c6020830186610e36565b610e996040830185610e36565b610ea66060830184610e36565b95945050505050565b7f4e487b71000000000000000000000000000000000000000000000000000000005f52601160045260245ffd5b5f610ee682610c3f565b9150610ef183610c3f565b9250828201905080821115610f0957610f08610eaf565b5b92915050565b5f81519050919050565b5f82825260208201905092915050565b5f819050602082019050919050565b610f4181610c3f565b82525050565b5f610f528383610f38565b60208301905092915050565b5f602082019050919050565b5f610f7482610f0f565b610f7e8185610f19565b9350610f8983610f29565b805f5b83811015610fb9578151610fa08882610f47565b9750610fab83610f5e565b925050600181019050610f8c565b5085935050505092915050565b5f6040820190508181035f830152610fde8185610f6a565b90508181036020830152610ff28184610f6a565b90509392505050565b5f81519050919050565b5f82825260208201905092915050565b8281835e5f83830152505050565b5f601f19601f8301169050919050565b5f61103d82610ffb565b6110478185611005565b9350611057818560208601611015565b61106081611023565b840191505092915050565b5f60a08201905061107e5f830188610b05565b61108b6020830187610b05565b6110986040830186610e36565b6110a56060830185610e36565b81810360808301526110b78184611033565b90509695505050505050565b5f7fffffffff0000000000000000000000000000000000000000000000000000000082169050919050565b6110f7816110c3565b8114611101575f80fd5b50565b5f81519050611112816110ee565b92915050565b5f6020828403121561112d5761112c610a7c565b5b5f61113a84828501611104565b91505092915050565b5f60a0820190506111565f830188610b05565b6111636020830187610b05565b81810360408301526111758186610f6a565b905081810360608301526111898185610f6a565b9050818103608083015261119d8184611033565b90509695505050505050565b61274b806111b65f395ff3fe608060405234801561000f575f80fd5b50600436106100e7575f3560e01c8063715018a61161008a578063a22cb46511610064578063a22cb46514610243578063e985e9c51461025f578063f242432a1461028f578063f2fde38b146102ab576100e7565b8063715018a6146101ff578063731133e9146102095780638da5cb5b14610225576100e7565b80630e89341c116100c65780630e89341c146101675780631f7fdffa146101975780632eb2c2d6146101b35780634e1273f4146101cf576100e7565b8062fdd58e146100eb57806301ffc9a71461011b57806302fe53051461014b575b5f80fd5b61010560048036038101906101009190611765565b6102c7565b60405161011291906117b2565b60405180910390f35b61013560048036038101906101309190611820565b61031c565b6040516101429190611865565b60405180910390f35b610165600480360381019061016091906119ba565b6103fd565b005b610181600480360381019061017c9190611a01565b610411565b60405161018e9190611a8c565b60405180910390f35b6101b160048036038101906101ac9190611c0e565b6104a3565b005b6101cd60048036038101906101c89190611cc6565b6104bd565b005b6101e960048036038101906101e49190611e51565b610564565b6040516101f69190611f7e565b60405180910390f35b61020761066b565b005b610223600480360381019061021e9190611f9e565b61067e565b005b61022d610698565b60405161023a919061202d565b60405180910390f35b61025d60048036038101906102589190612070565b6106c0565b005b610279600480360381019061027491906120ae565b6106d6565b6040516102869190611865565b60405180910390f35b6102a960048036038101906102a491906120ec565b610764565b005b6102c560048036038101906102c0919061217f565b61080b565b005b5f805f8381526020019081526020015f205f8473ffffffffffffffffffffffffffffffffffffffff1673ffffffffffffffffffffffffffffffffffffffff1681526020019081526020015f2054905092915050565b5f7fd9b67a26000000000000000000000000000000000000000000000000000000007bffffffffffffffffffffffffffffffffffffffffffffffffffffffff1916827bffffffffffffffffffffffffffffffffffffffffffffffffffffffff191614806103e657507f0e89341c000000000000000000000000000000000000000000000000000000007bffffffffffffffffffffffffffffffffffffffffffffffffffffffff1916827bffffffffffffffffffffffffffffffffffffffffffffffffffffffff1916145b806103f657506103f58261088f565b5b9050919050565b6104056108f8565b61040e8161097f565b50565b606060028054610420906121d7565b80601f016020809104026020016040519081016040528092919081815260200182805461044c906121d7565b80156104975780601f1061046e57610100808354040283529160200191610497565b820191905f5260205f20905b81548152906001019060200180831161047a57829003601f168201915b50505050509050919050565b6104ab6108f8565b6104b784848484610992565b50505050565b5f6104c6610a15565b90508073ffffffffffffffffffffffffffffffffffffffff168673ffffffffffffffffffffffffffffffffffffffff161415801561050b575061050986826106d6565b155b1561054f5780866040517fe237d922000000000000000000000000000000000000000000000000000000008152600401610546929190612207565b60405180910390fd5b61055c8686868686610a1c565b505050505050565b606081518351146105b057815183516040517f5b0599910000000000000000000000000000000000000000000000000000000081526004016105a792919061222e565b60405180910390fd5b5f835167ffffffffffffffff8111156105cc576105cb611896565b5b6040519080825280602002602001820160405280156105fa5781602001602082028036833780820191505090505b5090505f5b84518110156106605761063661061e8287610b1090919063ffffffff16565b6106318387610b2390919063ffffffff16565b6102c7565b82828151811061064957610648612255565b5b6020026020010181815250508060010190506105ff565b508091505092915050565b6106736108f8565b61067c5f610b36565b565b6106866108f8565b61069284848484610bf9565b50505050565b5f60035f9054906101000a900473ffffffffffffffffffffffffffffffffffffffff16905090565b6106d26106cb610a15565b8383610c8e565b5050565b5f60015f8473ffffffffffffffffffffffffffffffffffffffff1673ffffffffffffffffffffffffffffffffffffffff1681526020019081526020015f205f8373ffffffffffffffffffffffffffffffffffffffff1673ffffffffffffffffffffffffffffffffffffffff1681526020019081526020015f205f9054906101000a900460ff16905092915050565b5f61076d610a15565b90508073ffffffffffffffffffffffffffffffffffffffff168673ffffffffffffffffffffffffffffffffffffffff16141580156107b257506107b086826106d6565b155b156107f65780866040517fe237d9220000000000000000000000000000000000000000000000000000000081526004016107ed929190612207565b60405180910390fd5b6108038686868686610df7565b505050505050565b6108136108f8565b5f73ffffffffffffffffffffffffffffffffffffffff168173ffffffffffffffffffffffffffffffffffffffff1603610883575f6040517f1e4fbdf700000000000000000000000000000000000000000000000000000000815260040161087a919061202d565b60405180910390fd5b61088c81610b36565b50565b5f7f01ffc9a7000000000000000000000000000000000000000000000000000000007bffffffffffffffffffffffffffffffffffffffffffffffffffffffff1916827bffffffffffffffffffffffffffffffffffffffffffffffffffffffff1916149050919050565b610900610a15565b73ffffffffffffffffffffffffffffffffffffffff1661091e610698565b73ffffffffffffffffffffffffffffffffffffffff161461097d57610941610a15565b6040517f118cdaa7000000000000000000000000000000000000000000000000000000008152600401610974919061202d565b60405180910390fd5b565b806002908161098e919061241f565b5050565b5f73ffffffffffffffffffffffffffffffffffffffff168473ffffffffffffffffffffffffffffffffffffffff1603610a02575f6040517f57f447ce0000000000000000000000000000000000000000000000000000000081526004016109f9919061202d565b60405180910390fd5b610a0f5f85858585610efd565b50505050565b5f33905090565b5f73ffffffffffffffffffffffffffffffffffffffff168473ffffffffffffffffffffffffffffffffffffffff1603610a8c575f6040517f57f447ce000000000000000000000000000000000000000000000000000000008152600401610a83919061202d565b60405180910390fd5b5f73ffffffffffffffffffffffffffffffffffffffff168573ffffffffffffffffffffffffffffffffffffffff1603610afc575f6040517f01a83514000000000000000000000000000000000000000000000000000000008152600401610af3919061202d565b60405180910390fd5b610b098585858585610efd565b5050505050565b5f60208202602084010151905092915050565b5f60208202602084010151905092915050565b5f60035f9054906101000a900473ffffffffffffffffffffffffffffffffffffffff1690508160035f6101000a81548173ffffffffffffffffffffffffffffffffffffffff021916908373ffffffffffffffffffffffffffffffffffffffff1602179055508173ffffffffffffffffffffffffffffffffffffffff168173ffffffffffffffffffffffffffffffffffffffff167f8be0079c531659141344cd1fd0a4f28419497f9722a3daafe3b4186f6b6457e060405160405180910390a35050565b5f73ffffffffffffffffffffffffffffffffffffffff168473ffffffffffffffffffffffffffffffffffffffff1603610c69575f6040517f57f447ce000000000000000000000000000000000000000000000000000000008152600401610c60919061202d565b60405180910390fd5b5f80610c758585610fa9565b91509150610c865f87848487610efd565b505050505050565b5f73ffffffffffffffffffffffffffffffffffffffff168273ffffffffffffffffffffffffffffffffffffffff1603610cfe575f6040517fced3e100000000000000000000000000000000000000000000000000000000008152600401610cf5919061202d565b60405180910390fd5b8060015f8573ffffffffffffffffffffffffffffffffffffffff1673ffffffffffffffffffffffffffffffffffffffff1681526020019081526020015f205f8473ffffffffffffffffffffffffffffffffffffffff1673ffffffffffffffffffffffffffffffffffffffff1681526020019081526020015f205f6101000a81548160ff0219169083151502179055508173ffffffffffffffffffffffffffffffffffffffff168373ffffffffffffffffffffffffffffffffffffffff167f17307eab39ab6107e8899845ad3d59bd9653f200f220920489ca2b5937696c3183604051610dea9190611865565b60405180910390a3505050565b5f73ffffffffffffffffffffffffffffffffffffffff168473ffffffffffffffffffffffffffffffffffffffff1603610e67575f6040517f57f447ce000000000000000000000000000000000000000000000000000000008152600401610e5e919061202d565b60405180910390fd5b5f73ffffffffffffffffffffffffffffffffffffffff168573ffffffffffffffffffffffffffffffffffffffff1603610ed7575f6040517f01a83514000000000000000000000000000000000000000000000000000000008152600401610ece919061202d565b60405180910390fd5b5f80610ee38585610fa9565b91509150610ef48787848487610efd565b50505050505050565b610f0985858585610fd9565b5f73ffffffffffffffffffffffffffffffffffffffff168473ffffffffffffffffffffffffffffffffffffffff1614610fa2575f610f45610a15565b90506001845103610f91575f610f645f86610b2390919063ffffffff16565b90505f610f7a5f86610b2390919063ffffffff16565b9050610f8a838989858589611369565b5050610fa0565b610f9f818787878787611518565b5b505b5050505050565b60608060405191506001825283602083015260408201905060018152826020820152604081016040529250929050565b805182511461102357815181516040517f5b05999100000000000000000000000000000000000000000000000000000000815260040161101a92919061222e565b60405180910390fd5b5f61102c610a15565b90505f5b8351811015611228575f61104d8286610b2390919063ffffffff16565b90505f6110638386610b2390919063ffffffff16565b90505f73ffffffffffffffffffffffffffffffffffffffff168873ffffffffffffffffffffffffffffffffffffffff1614611186575f805f8481526020019081526020015f205f8a73ffffffffffffffffffffffffffffffffffffffff1673ffffffffffffffffffffffffffffffffffffffff1681526020019081526020015f205490508181101561113257888183856040517f03dee4c500000000000000000000000000000000000000000000000000000000815260040161112994939291906124ee565b60405180910390fd5b8181035f808581526020019081526020015f205f8b73ffffffffffffffffffffffffffffffffffffffff1673ffffffffffffffffffffffffffffffffffffffff1681526020019081526020015f2081905550505b5f73ffffffffffffffffffffffffffffffffffffffff168773ffffffffffffffffffffffffffffffffffffffff161461121b57805f808481526020019081526020015f205f8973ffffffffffffffffffffffffffffffffffffffff1673ffffffffffffffffffffffffffffffffffffffff1681526020019081526020015f205f828254611213919061255e565b925050819055505b5050806001019050611030565b5060018351036112e3575f6112465f85610b2390919063ffffffff16565b90505f61125c5f85610b2390919063ffffffff16565b90508573ffffffffffffffffffffffffffffffffffffffff168773ffffffffffffffffffffffffffffffffffffffff168473ffffffffffffffffffffffffffffffffffffffff167fc3d58168c5ae7397731d063d5bbf3d657854427343f4c083240f7aacaa2d0f6285856040516112d492919061222e565b60405180910390a45050611362565b8373ffffffffffffffffffffffffffffffffffffffff168573ffffffffffffffffffffffffffffffffffffffff168273ffffffffffffffffffffffffffffffffffffffff167f4a39dc06d4c0dbc64b70af90fd698a233a518aa5d07e595d983b8c0526c8f7fb8686604051611359929190612591565b60405180910390a45b5050505050565b5f8473ffffffffffffffffffffffffffffffffffffffff163b1115611510578373ffffffffffffffffffffffffffffffffffffffff1663f23a6e6187878686866040518663ffffffff1660e01b81526004016113c9959493929190612618565b6020604051808303815f875af192505050801561140457506040513d601f19601f820116820180604052508101906114019190612684565b60015b611485573d805f8114611432576040519150601f19603f3d011682016040523d82523d5f602084013e611437565b606091505b505f81510361147d57846040517f57f447ce000000000000000000000000000000000000000000000000000000008152600401611474919061202d565b60405180910390fd5b805181602001fd5b63f23a6e6160e01b7bffffffffffffffffffffffffffffffffffffffffffffffffffffffff1916817bffffffffffffffffffffffffffffffffffffffffffffffffffffffff19161461150e57846040517f57f447ce000000000000000000000000000000000000000000000000000000008152600401611505919061202d565b60405180910390fd5b505b505050505050565b5f8473ffffffffffffffffffffffffffffffffffffffff163b11156116bf578373ffffffffffffffffffffffffffffffffffffffff1663bc197c8187878686866040518663ffffffff1660e01b81526004016115789594939291906126af565b6020604051808303815f875af19250505080156115b357506040513d601f19601f820116820180604052508101906115b09190612684565b60015b611634573d805f81146115e1576040519150601f19603f3d011682016040523d82523d5f602084013e6115e6565b606091505b505f81510361162c57846040517f57f447ce000000000000000000000000000000000000000000000000000000008152600401611623919061202d565b60405180910390fd5b805181602001fd5b63bc197c8160e01b7bffffffffffffffffffffffffffffffffffffffffffffffffffffffff1916817bffffffffffffffffffffffffffffffffffffffffffffffffffffffff1916146116bd57846040517f57f447ce0000000000000000000000000000000000000000000000000000000081526004016116b4919061202d565b60405180910390fd5b505b505050505050565b5f604051905090565b5f80fd5b5f80fd5b5f73ffffffffffffffffffffffffffffffffffffffff82169050919050565b5f611701826116d8565b9050919050565b611711816116f7565b811461171b575f80fd5b50565b5f8135905061172c81611708565b92915050565b5f819050919050565b61174481611732565b811461174e575f80fd5b50565b5f8135905061175f8161173b565b92915050565b5f806040838503121561177b5761177a6116d0565b5b5f6117888582860161171e565b925050602061179985828601611751565b9150509250929050565b6117ac81611732565b82525050565b5f6020820190506117c55f8301846117a3565b92915050565b5f7fffffffff0000000000000000000000000000000000000000000000000000000082169050919050565b6117ff816117cb565b8114611809575f80fd5b50565b5f8135905061181a816117f6565b92915050565b5f60208284031215611835576118346116d0565b5b5f6118428482850161180c565b91505092915050565b5f8115159050919050565b61185f8161184b565b82525050565b5f6020820190506118785f830184611856565b92915050565b5f80fd5b5f80fd5b5f601f19601f8301169050919050565b7f4e487b71000000000000000000000000000000000000000000000000000000005f52604160045260245ffd5b6118cc82611886565b810181811067ffffffffffffffff821117156118eb576118ea611896565b5b80604052505050565b5f6118fd6116c7565b905061190982826118c3565b919050565b5f67ffffffffffffffff82111561192857611927611896565b5b61193182611886565b9050602081019050919050565b828183375f83830152505050565b5f61195e6119598461190e565b6118f4565b90508281526020810184848401111561197a57611979611882565b5b61198584828561193e565b509392505050565b5f82601f8301126119a1576119a061187e565b5b81356119b184826020860161194c565b91505092915050565b5f602082840312156119cf576119ce6116d0565b5b5f82013567ffffffffffffffff8111156119ec576119eb6116d4565b5b6119f88482850161198d565b91505092915050565b5f60208284031215611a1657611a156116d0565b5b5f611a2384828501611751565b91505092915050565b5f81519050919050565b5f82825260208201905092915050565b8281835e5f83830152505050565b5f611a5e82611a2c565b611a688185611a36565b9350611a78818560208601611a46565b611a8181611886565b840191505092915050565b5f6020820190508181035f830152611aa48184611a54565b905092915050565b5f67ffffffffffffffff821115611ac657611ac5611896565b5b602082029050602081019050919050565b5f80fd5b5f611aed611ae884611aac565b6118f4565b90508083825260208201905060208402830185811115611b1057611b0f611ad7565b5b835b81811015611b395780611b258882611751565b845260208401935050602081019050611b12565b5050509392505050565b5f82601f830112611b5757611b5661187e565b5b8135611b67848260208601611adb565b91505092915050565b5f67ffffffffffffffff821115611b8a57611b89611896565b5b611b9382611886565b9050602081019050919050565b5f611bb2611bad84611b70565b6118f4565b905082815260208101848484011115611bce57611bcd611882565b5b611bd984828561193e565b509392505050565b5f82601f830112611bf557611bf461187e565b5b8135611c05848260208601611ba0565b91505092915050565b5f805f8060808587031215611c2657611c256116d0565b5b5f611c338782880161171e565b945050602085013567ffffffffffffffff811115611c5457611c536116d4565b5b611c6087828801611b43565b935050604085013567ffffffffffffffff811115611c8157611c806116d4565b5b611c8d87828801611b43565b925050606085013567ffffffffffffffff811115611cae57611cad6116d4565b5b611cba87828801611be1565b91505092959194509250565b5f805f805f60a08688031215611cdf57611cde6116d0565b5b5f611cec8882890161171e565b9550506020611cfd8882890161171e565b945050604086013567ffffffffffffffff811115611d1e57611d1d6116d4565b5b611d2a88828901611b43565b935050606086013567ffffffffffffffff811115611d4b57611d4a6116d4565b5b611d5788828901611b43565b925050608086013567ffffffffffffffff811115611d7857611d776116d4565b5b611d8488828901611be1565b9150509295509295909350565b5f67ffffffffffffffff821115611dab57611daa611896565b5b602082029050602081019050919050565b5f611dce611dc984611d91565b6118f4565b90508083825260208201905060208402830185811115611df157611df0611ad7565b5b835b81811015611e1a5780611e06888261171e565b845260208401935050602081019050611df3565b5050509392505050565b5f82601f830112611e3857611e3761187e565b5b8135611e48848260208601611dbc565b91505092915050565b5f8060408385031215611e6757611e666116d0565b5b5f83013567ffffffffffffffff811115611e8457611e836116d4565b5b611e9085828601611e24565b925050602083013567ffffffffffffffff811115611eb157611eb06116d4565b5b611ebd85828601611b43565b9150509250929050565b5f81519050919050565b5f82825260208201905092915050565b5f819050602082019050919050565b611ef981611732565b82525050565b5f611f0a8383611ef0565b60208301905092915050565b5f602082019050919050565b5f611f2c82611ec7565b611f368185611ed1565b9350611f4183611ee1565b805f5b83811015611f71578151611f588882611eff565b9750611f6383611f16565b925050600181019050611f44565b5085935050505092915050565b5f6020820190508181035f830152611f968184611f22565b905092915050565b5f805f8060808587031215611fb657611fb56116d0565b5b5f611fc38782880161171e565b9450506020611fd487828801611751565b9350506040611fe587828801611751565b925050606085013567ffffffffffffffff811115612006576120056116d4565b5b61201287828801611be1565b91505092959194509250565b612027816116f7565b82525050565b5f6020820190506120405f83018461201e565b92915050565b61204f8161184b565b8114612059575f80fd5b50565b5f8135905061206a81612046565b92915050565b5f8060408385031215612086576120856116d0565b5b5f6120938582860161171e565b92505060206120a48582860161205c565b9150509250929050565b5f80604083850312156120c4576120c36116d0565b5b5f6120d18582860161171e565b92505060206120e28582860161171e565b9150509250929050565b5f805f805f60a08688031215612105576121046116d0565b5b5f6121128882890161171e565b95505060206121238882890161171e565b945050604061213488828901611751565b935050606061214588828901611751565b925050608086013567ffffffffffffffff811115612166576121656116d4565b5b61217288828901611be1565b9150509295509295909350565b5f60208284031215612194576121936116d0565b5b5f6121a18482850161171e565b91505092915050565b7f4e487b71000000000000000000000000000000000000000000000000000000005f52602260045260245ffd5b5f60028204905060018216806121ee57607f821691505b602082108103612201576122006121aa565b5b50919050565b5f60408201905061221a5f83018561201e565b612227602083018461201e565b9392505050565b5f6040820190506122415f8301856117a3565b61224e60208301846117a3565b9392505050565b7f4e487b71000000000000000000000000000000000000000000000000000000005f52603260045260245ffd5b5f819050815f5260205f209050919050565b5f6020601f8301049050919050565b5f82821b905092915050565b5f600883026122de7fffffffffffffffffffffffffffffffffffffffffffffffffffffffffffffffff826122a3565b6122e886836122a3565b95508019841693508086168417925050509392505050565b5f819050919050565b5f61232361231e61231984611732565b612300565b611732565b9050919050565b5f819050919050565b61233c83612309565b6123506123488261232a565b8484546122af565b825550505050565b5f90565b612364612358565b61236f818484612333565b505050565b5b81811015612392576123875f8261235c565b600181019050612375565b5050565b601f8211156123d7576123a881612282565b6123b184612294565b810160208510156123c0578190505b6123d46123cc85612294565b830182612374565b50505b505050565b5f82821c905092915050565b5f6123f75f19846008026123dc565b1980831691505092915050565b5f61240f83836123e8565b9150826002028217905092915050565b61242882611a2c565b67ffffffffffffffff81111561244157612440611896565b5b61244b82546121d7565b612456828285612396565b5f60209050601f831160018114612487575f8415612475578287015190505b61247f8582612404565b8655506124e6565b601f19841661249586612282565b5f5b828110156124bc57848901518255600182019150602085019450602081019050612497565b868310156124d957848901516124d5601f8916826123e8565b8355505b6001600288020188555050505b505050505050565b5f6080820190506125015f83018761201e565b61250e60208301866117a3565b61251b60408301856117a3565b61252860608301846117a3565b95945050505050565b7f4e487b71000000000000000000000000000000000000000000000000000000005f52601160045260245ffd5b5f61256882611732565b915061257383611732565b925082820190508082111561258b5761258a612531565b5b92915050565b5f6040820190508181035f8301526125a98185611f22565b905081810360208301526125bd8184611f22565b90509392505050565b5f81519050919050565b5f82825260208201905092915050565b5f6125ea826125c6565b6125f481856125d0565b9350612604818560208601611a46565b61260d81611886565b840191505092915050565b5f60a08201905061262b5f83018861201e565b612638602083018761201e565b61264560408301866117a3565b61265260608301856117a3565b818103608083015261266481846125e0565b90509695505050505050565b5f8151905061267e816117f6565b92915050565b5f60208284031215612699576126986116d0565b5b5f6126a684828501612670565b91505092915050565b5f60a0820190506126c25f83018861201e565b6126cf602083018761201e565b81810360408301526126e18186611f22565b905081810360608301526126f58185611f22565b9050818103608083015261270981846125e0565b9050969550505050505056fea2646970667358221220d424a166330249dd94204527b3858192b80809e7fe11562ad00a4b9abffd719e64736f6c634300081a003368747470733a2f2f6578616d706c652e636f6d2f6d657461646174612f7b69647d2e6a736f6e",
			"opcodes": "PUSH1 0x80 PUSH1 0x40 MSTORE CALLVALUE DUP1 ISZERO PUSH2 0xF JUMPI PUSH0 DUP1 REVERT JUMPDEST POP PUSH1 0x40 MLOAD PUSH2 0x3927 CODESIZE SUB DUP1 PUSH2 0x3927 DUP4 CODECOPY DUP2 DUP2 ADD PUSH1 0x40 MSTORE DUP2 ADD SWAP1 PUSH2 0x31 SWAP2 SWAP1 PUSH2 0xADA JUMP JUMPDEST DUP1 PUSH1 0x40 MLOAD DUP1 PUSH1 0x60 ADD PUSH1 0x40 MSTORE DUP1 PUSH1 0x26 DUP2 MSTORE PUSH1 0x20 ADD PUSH2 0x3901 PUSH1 0x26 SWAP2 CODECOPY PUSH2 0x5A DUP2 PUSH2 0x103 PUSH1 0x20 SHL PUSH1 0x20 SHR JUMP JUMPDEST POP PUSH0 PUSH20 0xFFFFFFFFFFFFFFFFFFFFFFFFFFFFFFFFFFFFFFFF AND DUP2 PUSH20 0xFFFFFFFFFFFFFFFFFFFFFFFFFFFFFFFFFFFFFFFF AND SUB PUSH2 0xCB JUMPI PUSH0 PUSH1 0x40 MLOAD PUSH32 0x1E4FBDF700000000000000000000000000000000000000000000000000000000 DUP2 MSTORE PUSH1 0x4 ADD PUSH2 0xC2 SWAP2 SWAP1 PUSH2 0xB14 JUMP JUMPDEST PUSH1 0x40 MLOAD DUP1 SWAP2 SUB SWAP1 REVERT JUMPDEST PUSH2 0xDA DUP2 PUSH2 0x116 PUSH1 0x20 SHL PUSH1 0x20 SHR JUMP JUMPDEST POP PUSH2 0xFD CALLER PUSH0 PUSH2 0x2710 PUSH1 0x40 MLOAD DUP1 PUSH1 0x20 ADD PUSH1 0x40 MSTORE DUP1 PUSH0 DUP2 MSTORE POP PUSH2 0x1D9 PUSH1 0x20 SHL PUSH1 0x20 SHR JUMP JUMPDEST POP PUSH2 0x11A9 JUMP JUMPDEST DUP1 PUSH1 0x2 SWAP1 DUP2 PUSH2 0x112 SWAP2 SWAP1 PUSH2 0xD67 JUMP JUMPDEST POP POP JUMP JUMPDEST PUSH0 PUSH1 0x3 PUSH0 SWAP1 SLOAD SWAP1 PUSH2 0x100 EXP SWAP1 DIV PUSH20 0xFFFFFFFFFFFFFFFFFFFFFFFFFFFFFFFFFFFFFFFF AND SWAP1 POP DUP2 PUSH1 0x3 PUSH0 PUSH2 0x100 EXP DUP2 SLOAD DUP2 PUSH20 0xFFFFFFFFFFFFFFFFFFFFFFFFFFFFFFFFFFFFFFFF MUL NOT AND SWAP1 DUP4 PUSH20 0xFFFFFFFFFFFFFFFFFFFFFFFFFFFFFFFFFFFFFFFF AND MUL OR SWAP1 SSTORE POP DUP2 PUSH20 0xFFFFFFFFFFFFFFFFFFFFFFFFFFFFFFFFFFFFFFFF AND DUP2 PUSH20 0xFFFFFFFFFFFFFFFFFFFFFFFFFFFFFFFFFFFFFFFF AND PUSH32 0x8BE0079C531659141344CD1FD0A4F28419497F9722A3DAAFE3B4186F6B6457E0 PUSH1 0x40 MLOAD PUSH1 0x40 MLOAD DUP1 SWAP2 SUB SWAP1 LOG3 POP POP JUMP JUMPDEST PUSH0 PUSH20 0xFFFFFFFFFFFFFFFFFFFFFFFFFFFFFFFFFFFFFFFF AND DUP5 PUSH20 0xFFFFFFFFFFFFFFFFFFFFFFFFFFFFFFFFFFFFFFFF AND SUB PUSH2 0x249 JUMPI PUSH0 PUSH1 0x40 MLOAD PUSH32 0x57F447CE00000000000000000000000000000000000000000000000000000000 DUP2 MSTORE PUSH1 0x4 ADD PUSH2 0x240 SWAP2 SWAP1 PUSH2 0xB14 JUMP JUMPDEST PUSH1 0x40 MLOAD DUP1 SWAP2 SUB SWAP1 REVERT JUMPDEST PUSH0 DUP1 PUSH2 0x25B DUP6 DUP6 PUSH2 0x27A PUSH1 0x20 SHL PUSH1 0x20 SHR JUMP JUMPDEST SWAP2 POP SWAP2 POP PUSH2 0x272 PUSH0 DUP8 DUP5 DUP5 DUP8 PUSH2 0x2AA PUSH1 0x20 SHL PUSH1 0x20 SHR JUMP JUMPDEST POP POP POP POP POP POP JUMP JUMPDEST PUSH1 0x60 DUP1 PUSH1 0x40 MLOAD SWAP2 POP PUSH1 0x1 DUP3 MSTORE DUP4 PUSH1 0x20 DUP4 ADD MSTORE PUSH1 0x40 DUP3 ADD SWAP1 POP PUSH1 0x1 DUP2 MSTORE DUP3 PUSH1 0x20 DUP3 ADD MSTORE PUSH1 0x40 DUP2 ADD PUSH1 0x40 MSTORE SWAP3 POP SWAP3 SWAP1 POP JUMP JUMPDEST PUSH2 0x2BC DUP6 DUP6 DUP6 DUP6 PUSH2 0x36E PUSH1 0x20 SHL PUSH1 0x20 SHR JUMP JUMPDEST PUSH0 PUSH20 0xFFFFFFFFFFFFFFFFFFFFFFFFFFFFFFFFFFFFFFFF AND DUP5 PUSH20 0xFFFFFFFFFFFFFFFFFFFFFFFFFFFFFFFFFFFFFFFF AND EQ PUSH2 0x367 JUMPI PUSH0 PUSH2 0x2FE PUSH2 0x704 PUSH1 0x20 SHL PUSH1 0x20 SHR JUMP JUMPDEST SWAP1 POP PUSH1 0x1 DUP5 MLOAD SUB PUSH2 0x350 JUMPI PUSH0 PUSH2 0x31D PUSH0 DUP7 PUSH2 0x70B PUSH1 0x20 SHL SWAP1 SWAP2 SWAP1 PUSH1 0x20 SHR JUMP JUMPDEST SWAP1 POP PUSH0 PUSH2 0x333 PUSH0 DUP7 PUSH2 0x70B PUSH1 0x20 SHL SWAP1 SWAP2 SWAP1 PUSH1 0x20 SHR JUMP JUMPDEST SWAP1 POP PUSH2 0x349 DUP4 DUP10 DUP10 DUP6 DUP6 DUP10 PUSH2 0x71E PUSH1 0x20 SHL PUSH1 0x20 SHR JUMP JUMPDEST POP POP PUSH2 0x365 JUMP JUMPDEST PUSH2 0x364 DUP2 DUP8 DUP8 DUP8 DUP8 DUP8 PUSH2 0x8CD PUSH1 0x20 SHL PUSH1 0x20 SHR JUMP JUMPDEST JUMPDEST POP JUMPDEST POP POP POP POP POP JUMP JUMPDEST DUP1 MLOAD DUP3 MLOAD EQ PUSH2 0x3B8 JUMPI DUP2 MLOAD DUP2 MLOAD PUSH1 0x40 MLOAD PUSH32 0x5B05999100000000000000000000000000000000000000000000000000000000 DUP2 MSTORE PUSH1 0x4 ADD PUSH2 0x3AF SWAP3 SWAP2 SWAP1 PUSH2 0xE45 JUMP JUMPDEST PUSH1 0x40 MLOAD DUP1 SWAP2 SUB SWAP1 REVERT JUMPDEST PUSH0 PUSH2 0x3C7 PUSH2 0x704 PUSH1 0x20 SHL PUSH1 0x20 SHR JUMP JUMPDEST SWAP1 POP PUSH0 JUMPDEST DUP4 MLOAD DUP2 LT ISZERO PUSH2 0x5C3 JUMPI PUSH0 PUSH2 0x3E8 DUP3 DUP7 PUSH2 0x70B PUSH1 0x20 SHL SWAP1 SWAP2 SWAP1 PUSH1 0x20 SHR JUMP JUMPDEST SWAP1 POP PUSH0 PUSH2 0x3FE DUP4 DUP7 PUSH2 0x70B PUSH1 0x20 SHL SWAP1 SWAP2 SWAP1 PUSH1 0x20 SHR JUMP JUMPDEST SWAP1 POP PUSH0 PUSH20 0xFFFFFFFFFFFFFFFFFFFFFFFFFFFFFFFFFFFFFFFF AND DUP9 PUSH20 0xFFFFFFFFFFFFFFFFFFFFFFFFFFFFFFFFFFFFFFFF AND EQ PUSH2 0x521 JUMPI PUSH0 DUP1 PUSH0 DUP5 DUP2 MSTORE PUSH1 0x20 ADD SWAP1 DUP2 MSTORE PUSH1 0x20 ADD PUSH0 KECCAK256 PUSH0 DUP11 PUSH20 0xFFFFFFFFFFFFFFFFFFFFFFFFFFFFFFFFFFFFFFFF AND PUSH20 0xFFFFFFFFFFFFFFFFFFFFFFFFFFFFFFFFFFFFFFFF AND DUP2 MSTORE PUSH1 0x20 ADD SWAP1 DUP2 MSTORE PUSH1 0x20 ADD PUSH0 KECCAK256 SLOAD SWAP1 POP DUP2 DUP2 LT ISZERO PUSH2 0x4CD JUMPI DUP9 DUP2 DUP4 DUP6 PUSH1 0x40 MLOAD PUSH32 0x3DEE4C500000000000000000000000000000000000000000000000000000000 DUP2 MSTORE PUSH1 0x4 ADD PUSH2 0x4C4 SWAP5 SWAP4 SWAP3 SWAP2 SWAP1 PUSH2 0xE6C JUMP JUMPDEST PUSH1 0x40 MLOAD DUP1 SWAP2 SUB SWAP1 REVERT JUMPDEST DUP2 DUP2 SUB PUSH0 DUP1 DUP6 DUP2 MSTORE PUSH1 0x20 ADD SWAP1 DUP2 MSTORE PUSH1 0x20 ADD PUSH0 KECCAK256 PUSH0 DUP12 PUSH20 0xFFFFFFFFFFFFFFFFFFFFFFFFFFFFFFFFFFFFFFFF AND PUSH20 0xFFFFFFFFFFFFFFFFFFFFFFFFFFFFFFFFFFFFFFFF AND DUP2 MSTORE PUSH1 0x20 ADD SWAP1 DUP2 MSTORE PUSH1 0x20 ADD PUSH0 KECCAK256 DUP2 SWAP1 SSTORE POP POP JUMPDEST PUSH0 PUSH20 0xFFFFFFFFFFFFFFFFFFFFFFFFFFFFFFFFFFFFFFFF AND DUP8 PUSH20 0xFFFFFFFFFFFFFFFFFFFFFFFFFFFFFFFFFFFFFFFF AND EQ PUSH2 0x5B6 JUMPI DUP1 PUSH0 DUP1 DUP5 DUP2 MSTORE PUSH1 0x20 ADD SWAP1 DUP2 MSTORE PUSH1 0x20 ADD PUSH0 KECCAK256 PUSH0 DUP10 PUSH20 0xFFFFFFFFFFFFFFFFFFFFFFFFFFFFFFFFFFFFFFFF AND PUSH20 0xFFFFFFFFFFFFFFFFFFFFFFFFFFFFFFFFFFFFFFFF AND DUP2 MSTORE PUSH1 0x20 ADD SWAP1 DUP2 MSTORE PUSH1 0x20 ADD PUSH0 KECCAK256 PUSH0 DUP3 DUP3 SLOAD PUSH2 0x5AE SWAP2 SWAP1 PUSH2 0xEDC JUMP JUMPDEST SWAP3 POP POP DUP2 SWAP1 SSTORE POP JUMPDEST POP POP DUP1 PUSH1 0x1 ADD SWAP1 POP PUSH2 0x3CB JUMP JUMPDEST POP PUSH1 0x1 DUP4 MLOAD SUB PUSH2 0x67E JUMPI PUSH0 PUSH2 0x5E1 PUSH0 DUP6 PUSH2 0x70B PUSH1 0x20 SHL SWAP1 SWAP2 SWAP1 PUSH1 0x20 SHR JUMP JUMPDEST SWAP1 POP PUSH0 PUSH2 0x5F7 PUSH0 DUP6 PUSH2 0x70B PUSH1 0x20 SHL SWAP1 SWAP2 SWAP1 PUSH1 0x20 SHR JUMP JUMPDEST SWAP1 POP DUP6 PUSH20 0xFFFFFFFFFFFFFFFFFFFFFFFFFFFFFFFFFFFFFFFF AND DUP8 PUSH20 0xFFFFFFFFFFFFFFFFFFFFFFFFFFFFFFFFFFFFFFFF AND DUP5 PUSH20 0xFFFFFFFFFFFFFFFFFFFFFFFFFFFFFFFFFFFFFFFF AND PUSH32 0xC3D58168C5AE7397731D063D5BBF3D657854427343F4C083240F7AACAA2D0F62 DUP6 DUP6 PUSH1 0x40 MLOAD PUSH2 0x66F SWAP3 SWAP2 SWAP1 PUSH2 0xE45 JUMP JUMPDEST PUSH1 0x40 MLOAD DUP1 SWAP2 SUB SWAP1 LOG4 POP POP PUSH2 0x6FD JUMP JUMPDEST DUP4 PUSH20 0xFFFFFFFFFFFFFFFFFFFFFFFFFFFFFFFFFFFFFFFF AND DUP6 PUSH20 0xFFFFFFFFFFFFFFFFFFFFFFFFFFFFFFFFFFFFFFFF AND DUP3 PUSH20 0xFFFFFFFFFFFFFFFFFFFFFFFFFFFFFFFFFFFFFFFF AND PUSH32 0x4A39DC06D4C0DBC64B70AF90FD698A233A518AA5D07E595D983B8C0526C8F7FB DUP7 DUP7 PUSH1 0x40 MLOAD PUSH2 0x6F4 SWAP3 SWAP2 SWAP1 PUSH2 0xFC6 JUMP JUMPDEST PUSH1 0x40 MLOAD DUP1 SWAP2 SUB SWAP1 LOG4 JUMPDEST POP POP POP POP POP JUMP JUMPDEST PUSH0 CALLER SWAP1 POP SWAP1 JUMP JUMPDEST PUSH0 PUSH1 0x20 DUP3 MUL PUSH1 0x20 DUP5 ADD ADD MLOAD SWAP1 POP SWAP3 SWAP2 POP POP JUMP JUMPDEST PUSH0 DUP5 PUSH20 0xFFFFFFFFFFFFFFFFFFFFFFFFFFFFFFFFFFFFFFFF AND EXTCODESIZE GT ISZERO PUSH2 0x8C5 JUMPI DUP4 PUSH20 0xFFFFFFFFFFFFFFFFFFFFFFFFFFFFFFFFFFFFFFFF AND PUSH4 0xF23A6E61 DUP8 DUP8 DUP7 DUP7 DUP7 PUSH1 0x40 MLOAD DUP7 PUSH4 0xFFFFFFFF AND PUSH1 0xE0 SHL DUP2 MSTORE PUSH1 0x4 ADD PUSH2 0x77E SWAP6 SWAP5 SWAP4 SWAP3 SWAP2 SWAP1 PUSH2 0x106B JUMP JUMPDEST PUSH1 0x20 PUSH1 0x40 MLOAD DUP1 DUP4 SUB DUP2 PUSH0 DUP8 GAS CALL SWAP3 POP POP POP DUP1 ISZERO PUSH2 0x7B9 JUMPI POP PUSH1 0x40 MLOAD RETURNDATASIZE PUSH1 0x1F NOT PUSH1 0x1F DUP3 ADD AND DUP3 ADD DUP1 PUSH1 0x40 MSTORE POP DUP2 ADD SWAP1 PUSH2 0x7B6 SWAP2 SWAP1 PUSH2 0x1118 JUMP JUMPDEST PUSH1 0x1 JUMPDEST PUSH2 0x83A JUMPI RETURNDATASIZE DUP1 PUSH0 DUP2 EQ PUSH2 0x7E7 JUMPI PUSH1 0x40 MLOAD SWAP2 POP PUSH1 0x1F NOT PUSH1 0x3F RETURNDATASIZE ADD AND DUP3 ADD PUSH1 0x40 MSTORE RETURNDATASIZE DUP3 MSTORE RETURNDATASIZE PUSH0 PUSH1 0x20 DUP5 ADD RETURNDATACOPY PUSH2 0x7EC JUMP JUMPDEST PUSH1 0x60 SWAP2 POP JUMPDEST POP PUSH0 DUP2 MLOAD SUB PUSH2 0x832 JUMPI DUP5 PUSH1 0x40 MLOAD PUSH32 0x57F447CE00000000000000000000000000000000000000000000000000000000 DUP2 MSTORE PUSH1 0x4 ADD PUSH2 0x829 SWAP2 SWAP1 PUSH2 0xB14 JUMP JUMPDEST PUSH1 0x40 MLOAD DUP1 SWAP2 SUB SWAP1 REVERT JUMPDEST DUP1 MLOAD DUP2 PUSH1 0x20 ADD REVERT JUMPDEST PUSH4 0xF23A6E61 PUSH1 0xE0 SHL PUSH28 0xFFFFFFFFFFFFFFFFFFFFFFFFFFFFFFFFFFFFFFFFFFFFFFFFFFFFFFFF NOT AND DUP2 PUSH28 0xFFFFFFFFFFFFFFFFFFFFFFFFFFFFFFFFFFFFFFFFFFFFFFFFFFFFFFFF NOT AND EQ PUSH2 0x8C3 JUMPI DUP5 PUSH1 0x40 MLOAD PUSH32 0x57F447CE00000000000000000000000000000000000000000000000000000000 DUP2 MSTORE PUSH1 0x4 ADD PUSH2 0x8BA SWAP2 SWAP1 PUSH2 0xB14 JUMP JUMPDEST PUSH1 0x40 MLOAD DUP1 SWAP2 SUB SWAP1 REVERT JUMPDEST POP JUMPDEST POP POP POP POP POP POP JUMP JUMPDEST PUSH0 DUP5 PUSH20 0xFFFFFFFFFFFFFFFFFFFFFFFFFFFFFFFFFFFFFFFF AND EXTCODESIZE GT ISZERO PUSH2 0xA74 JUMPI DUP4 PUSH20 0xFFFFFFFFFFFFFFFFFFFFFFFFFFFFFFFFFFFFFFFF AND PUSH4 0xBC197C81 DUP8 DUP8 DUP7 DUP7 DUP7 PUSH1 0x40 MLOAD DUP7 PUSH4 0xFFFFFFFF AND PUSH1 0xE0 SHL DUP2 MSTORE PUSH1 0x4 ADD PUSH2 0x92D SWAP6 SWAP5 SWAP4 SWAP3 SWAP2 SWAP1 PUSH2 0x1143 JUMP JUMPDEST PUSH1 0x20 PUSH1 0x40 MLOAD DUP1 DUP4 SUB DUP2 PUSH0 DUP8 GAS CALL SWAP3 POP POP POP DUP1 ISZERO PUSH2 0x968 JUMPI POP PUSH1 0x40 MLOAD RETURNDATASIZE PUSH1 0x1F NOT PUSH1 0x1F DUP3 ADD AND DUP3 ADD DUP1 PUSH1 0x40 MSTORE POP DUP2 ADD SWAP1 PUSH2 0x965 SWAP2 SWAP1 PUSH2 0x1118 JUMP JUMPDEST PUSH1 0x1 JUMPDEST PUSH2 0x9E9 JUMPI RETURNDATASIZE DUP1 PUSH0 DUP2 EQ PUSH2 0x996 JUMPI PUSH1 0x40 MLOAD SWAP2 POP PUSH1 0x1F NOT PUSH1 0x3F RETURNDATASIZE ADD AND DUP3 ADD PUSH1 0x40 MSTORE RETURNDATASIZE DUP3 MSTORE RETURNDATASIZE PUSH0 PUSH1 0x20 DUP5 ADD RETURNDATACOPY PUSH2 0x99B JUMP JUMPDEST PUSH1 0x60 SWAP2 POP JUMPDEST POP PUSH0 DUP2 MLOAD SUB PUSH2 0x9E1 JUMPI DUP5 PUSH1 0x40 MLOAD PUSH32 0x57F447CE00000000000000000000000000000000000000000000000000000000 DUP2 MSTORE PUSH1 0x4 ADD PUSH2 0x9D8 SWAP2 SWAP1 PUSH2 0xB14 JUMP JUMPDEST PUSH1 0x40 MLOAD DUP1 SWAP2 SUB SWAP1 REVERT JUMPDEST DUP1 MLOAD DUP2 PUSH1 0x20 ADD REVERT JUMPDEST PUSH4 0xBC197C81 PUSH1 0xE0 SHL PUSH28 0xFFFFFFFFFFFFFFFFFFFFFFFFFFFFFFFFFFFFFFFFFFFFFFFFFFFFFFFF NOT AND DUP2 PUSH28 0xFFFFFFFFFFFFFFFFFFFFFFFFFFFFFFFFFFFFFFFFFFFFFFFFFFFFFFFF NOT AND EQ PUSH2 0xA72 JUMPI DUP5 PUSH1 0x40 MLOAD PUSH32 0x57F447CE00000000000000000000000000000000000000000000000000000000 DUP2 MSTORE PUSH1 0x4 ADD PUSH2 0xA69 SWAP2 SWAP1 PUSH2 0xB14 JUMP JUMPDEST PUSH1 0x40 MLOAD DUP1 SWAP2 SUB SWAP1 REVERT JUMPDEST POP JUMPDEST POP POP POP POP POP POP JUMP JUMPDEST PUSH0 DUP1 REVERT JUMPDEST PUSH0 PUSH20 0xFFFFFFFFFFFFFFFFFFFFFFFFFFFFFFFFFFFFFFFF DUP3 AND SWAP1 POP SWAP2 SWAP1 POP JUMP JUMPDEST PUSH0 PUSH2 0xAA9 DUP3 PUSH2 0xA80 JUMP JUMPDEST SWAP1 POP SWAP2 SWAP1 POP JUMP JUMPDEST PUSH2 0xAB9 DUP2 PUSH2 0xA9F JUMP JUMPDEST DUP2 EQ PUSH2 0xAC3 JUMPI PUSH0 DUP1 REVERT JUMPDEST POP JUMP JUMPDEST PUSH0 DUP2 MLOAD SWAP1 POP PUSH2 0xAD4 DUP2 PUSH2 0xAB0 JUMP JUMPDEST SWAP3 SWAP2 POP POP JUMP JUMPDEST PUSH0 PUSH1 0x20 DUP3 DUP5 SUB SLT ISZERO PUSH2 0xAEF JUMPI PUSH2 0xAEE PUSH2 0xA7C JUMP JUMPDEST JUMPDEST PUSH0 PUSH2 0xAFC DUP5 DUP3 DUP6 ADD PUSH2 0xAC6 JUMP JUMPDEST SWAP2 POP POP SWAP3 SWAP2 POP POP JUMP JUMPDEST PUSH2 0xB0E DUP2 PUSH2 0xA9F JUMP JUMPDEST DUP3 MSTORE POP POP JUMP JUMPDEST PUSH0 PUSH1 0x20 DUP3 ADD SWAP1 POP PUSH2 0xB27 PUSH0 DUP4 ADD DUP5 PUSH2 0xB05 JUMP JUMPDEST SWAP3 SWAP2 POP POP JUMP JUMPDEST PUSH0 DUP2 MLOAD SWAP1 POP SWAP2 SWAP1 POP JUMP JUMPDEST PUSH32 0x4E487B7100000000000000000000000000000000000000000000000000000000 PUSH0 MSTORE PUSH1 0x41 PUSH1 0x4 MSTORE PUSH1 0x24 PUSH0 REVERT JUMPDEST PUSH32 0x4E487B7100000000000000000000000000000000000000000000000000000000 PUSH0 MSTORE PUSH1 0x22 PUSH1 0x4 MSTORE PUSH1 0x24 PUSH0 REVERT JUMPDEST PUSH0 PUSH1 0x2 DUP3 DIV SWAP1 POP PUSH1 0x1 DUP3 AND DUP1 PUSH2 0xBA8 JUMPI PUSH1 0x7F DUP3 AND SWAP2 POP JUMPDEST PUSH1 0x20 DUP3 LT DUP2 SUB PUSH2 0xBBB JUMPI PUSH2 0xBBA PUSH2 0xB64 JUMP JUMPDEST JUMPDEST POP SWAP2 SWAP1 POP JUMP JUMPDEST PUSH0 DUP2 SWAP1 POP DUP2 PUSH0 MSTORE PUSH1 0x20 PUSH0 KECCAK256 SWAP1 POP SWAP2 SWAP1 POP JUMP JUMPDEST PUSH0 PUSH1 0x20 PUSH1 0x1F DUP4 ADD DIV SWAP1 POP SWAP2 SWAP1 POP JUMP JUMPDEST PUSH0 DUP3 DUP3 SHL SWAP1 POP SWAP3 SWAP2 POP POP JUMP JUMPDEST PUSH0 PUSH1 0x8 DUP4 MUL PUSH2 0xC1D PUSH32 0xFFFFFFFFFFFFFFFFFFFFFFFFFFFFFFFFFFFFFFFFFFFFFFFFFFFFFFFFFFFFFFFF DUP3 PUSH2 0xBE2 JUMP JUMPDEST PUSH2 0xC27 DUP7 DUP4 PUSH2 0xBE2 JUMP JUMPDEST SWAP6 POP DUP1 NOT DUP5 AND SWAP4 POP DUP1 DUP7 AND DUP5 OR SWAP3 POP POP POP SWAP4 SWAP3 POP POP POP JUMP JUMPDEST PUSH0 DUP2 SWAP1 POP SWAP2 SWAP1 POP JUMP JUMPDEST PUSH0 DUP2 SWAP1 POP SWAP2 SWAP1 POP JUMP JUMPDEST PUSH0 PUSH2 0xC6B PUSH2 0xC66 PUSH2 0xC61 DUP5 PUSH2 0xC3F JUMP JUMPDEST PUSH2 0xC48 JUMP JUMPDEST PUSH2 0xC3F JUMP JUMPDEST SWAP1 POP SWAP2 SWAP1 POP JUMP JUMPDEST PUSH0 DUP2 SWAP1 POP SWAP2 SWAP1 POP JUMP JUMPDEST PUSH2 0xC84 DUP4 PUSH2 0xC51 JUMP JUMPDEST PUSH2 0xC98 PUSH2 0xC90 DUP3 PUSH2 0xC72 JUMP JUMPDEST DUP5 DUP5 SLOAD PUSH2 0xBEE JUMP JUMPDEST DUP3 SSTORE POP POP POP POP JUMP JUMPDEST PUSH0 SWAP1 JUMP JUMPDEST PUSH2 0xCAC PUSH2 0xCA0 JUMP JUMPDEST PUSH2 0xCB7 DUP2 DUP5 DUP5 PUSH2 0xC7B JUMP JUMPDEST POP POP POP JUMP JUMPDEST JUMPDEST DUP2 DUP2 LT ISZERO PUSH2 0xCDA JUMPI PUSH2 0xCCF PUSH0 DUP3 PUSH2 0xCA4 JUMP JUMPDEST PUSH1 0x1 DUP2 ADD SWAP1 POP PUSH2 0xCBD JUMP JUMPDEST POP POP JUMP JUMPDEST PUSH1 0x1F DUP3 GT ISZERO PUSH2 0xD1F JUMPI PUSH2 0xCF0 DUP2 PUSH2 0xBC1 JUMP JUMPDEST PUSH2 0xCF9 DUP5 PUSH2 0xBD3 JUMP JUMPDEST DUP2 ADD PUSH1 0x20 DUP6 LT ISZERO PUSH2 0xD08 JUMPI DUP2 SWAP1 POP JUMPDEST PUSH2 0xD1C PUSH2 0xD14 DUP6 PUSH2 0xBD3 JUMP JUMPDEST DUP4 ADD DUP3 PUSH2 0xCBC JUMP JUMPDEST POP POP JUMPDEST POP POP POP JUMP JUMPDEST PUSH0 DUP3 DUP3 SHR SWAP1 POP SWAP3 SWAP2 POP POP JUMP JUMPDEST PUSH0 PUSH2 0xD3F PUSH0 NOT DUP5 PUSH1 0x8 MUL PUSH2 0xD24 JUMP JUMPDEST NOT DUP1 DUP4 AND SWAP2 POP POP SWAP3 SWAP2 POP POP JUMP JUMPDEST PUSH0 PUSH2 0xD57 DUP4 DUP4 PUSH2 0xD30 JUMP JUMPDEST SWAP2 POP DUP3 PUSH1 0x2 MUL DUP3 OR SWAP1 POP SWAP3 SWAP2 POP POP JUMP JUMPDEST PUSH2 0xD70 DUP3 PUSH2 0xB2D JUMP JUMPDEST PUSH8 0xFFFFFFFFFFFFFFFF DUP2 GT ISZERO PUSH2 0xD89 JUMPI PUSH2 0xD88 PUSH2 0xB37 JUMP JUMPDEST JUMPDEST PUSH2 0xD93 DUP3 SLOAD PUSH2 0xB91 JUMP JUMPDEST PUSH2 0xD9E DUP3 DUP3 DUP6 PUSH2 0xCDE JUMP JUMPDEST PUSH0 PUSH1 0x20 SWAP1 POP PUSH1 0x1F DUP4 GT PUSH1 0x1 DUP2 EQ PUSH2 0xDCF JUMPI PUSH0 DUP5 ISZERO PUSH2 0xDBD JUMPI DUP3 DUP8 ADD MLOAD SWAP1 POP JUMPDEST PUSH2 0xDC7 DUP6 DUP3 PUSH2 0xD4C JUMP JUMPDEST DUP7 SSTORE POP PUSH2 0xE2E JUMP JUMPDEST PUSH1 0x1F NOT DUP5 AND PUSH2 0xDDD DUP7 PUSH2 0xBC1 JUMP JUMPDEST PUSH0 JUMPDEST DUP3 DUP2 LT ISZERO PUSH2 0xE04 JUMPI DUP5 DUP10 ADD MLOAD DUP3 SSTORE PUSH1 0x1 DUP3 ADD SWAP2 POP PUSH1 0x20 DUP6 ADD SWAP5 POP PUSH1 0x20 DUP2 ADD SWAP1 POP PUSH2 0xDDF JUMP JUMPDEST DUP7 DUP4 LT ISZERO PUSH2 0xE21 JUMPI DUP5 DUP10 ADD MLOAD PUSH2 0xE1D PUSH1 0x1F DUP10 AND DUP3 PUSH2 0xD30 JUMP JUMPDEST DUP4 SSTORE POP JUMPDEST PUSH1 0x1 PUSH1 0x2 DUP9 MUL ADD DUP9 SSTORE POP POP POP JUMPDEST POP POP POP POP POP POP JUMP JUMPDEST PUSH2 0xE3F DUP2 PUSH2 0xC3F JUMP JUMPDEST DUP3 MSTORE POP POP JUMP JUMPDEST PUSH0 PUSH1 0x40 DUP3 ADD SWAP1 POP PUSH2 0xE58 PUSH0 DUP4 ADD DUP6 PUSH2 0xE36 JUMP JUMPDEST PUSH2 0xE65 PUSH1 0x20 DUP4 ADD DUP5 PUSH2 0xE36 JUMP JUMPDEST SWAP4 SWAP3 POP POP POP JUMP JUMPDEST PUSH0 PUSH1 0x80 DUP3 ADD SWAP1 POP PUSH2 0xE7F PUSH0 DUP4 ADD DUP8 PUSH2 0xB05 JUMP JUMPDEST PUSH2 0xE8C PUSH1 0x20 DUP4 ADD DUP7 PUSH2 0xE36 JUMP JUMPDEST PUSH2 0xE99 PUSH1 0x40 DUP4 ADD DUP6 PUSH2 0xE36 JUMP JUMPDEST PUSH2 0xEA6 PUSH1 0x60 DUP4 ADD DUP5 PUSH2 0xE36 JUMP JUMPDEST SWAP6 SWAP5 POP POP POP POP POP JUMP JUMPDEST PUSH32 0x4E487B7100000000000000000000000000000000000000000000000000000000 PUSH0 MSTORE PUSH1 0x11 PUSH1 0x4 MSTORE PUSH1 0x24 PUSH0 REVERT JUMPDEST PUSH0 PUSH2 0xEE6 DUP3 PUSH2 0xC3F JUMP JUMPDEST SWAP2 POP PUSH2 0xEF1 DUP4 PUSH2 0xC3F JUMP JUMPDEST SWAP3 POP DUP3 DUP3 ADD SWAP1 POP DUP1 DUP3 GT ISZERO PUSH2 0xF09 JUMPI PUSH2 0xF08 PUSH2 0xEAF JUMP JUMPDEST JUMPDEST SWAP3 SWAP2 POP POP JUMP JUMPDEST PUSH0 DUP2 MLOAD SWAP1 POP SWAP2 SWAP1 POP JUMP JUMPDEST PUSH0 DUP3 DUP3 MSTORE PUSH1 0x20 DUP3 ADD SWAP1 POP SWAP3 SWAP2 POP POP JUMP JUMPDEST PUSH0 DUP2 SWAP1 POP PUSH1 0x20 DUP3 ADD SWAP1 POP SWAP2 SWAP1 POP JUMP JUMPDEST PUSH2 0xF41 DUP2 PUSH2 0xC3F JUMP JUMPDEST DUP3 MSTORE POP POP JUMP JUMPDEST PUSH0 PUSH2 0xF52 DUP4 DUP4 PUSH2 0xF38 JUMP JUMPDEST PUSH1 0x20 DUP4 ADD SWAP1 POP SWAP3 SWAP2 POP POP JUMP JUMPDEST PUSH0 PUSH1 0x20 DUP3 ADD SWAP1 POP SWAP2 SWAP1 POP JUMP JUMPDEST PUSH0 PUSH2 0xF74 DUP3 PUSH2 0xF0F JUMP JUMPDEST PUSH2 0xF7E DUP2 DUP6 PUSH2 0xF19 JUMP JUMPDEST SWAP4 POP PUSH2 0xF89 DUP4 PUSH2 0xF29 JUMP JUMPDEST DUP1 PUSH0 JUMPDEST DUP4 DUP2 LT ISZERO PUSH2 0xFB9 JUMPI DUP2 MLOAD PUSH2 0xFA0 DUP9 DUP3 PUSH2 0xF47 JUMP JUMPDEST SWAP8 POP PUSH2 0xFAB DUP4 PUSH2 0xF5E JUMP JUMPDEST SWAP3 POP POP PUSH1 0x1 DUP2 ADD SWAP1 POP PUSH2 0xF8C JUMP JUMPDEST POP DUP6 SWAP4 POP POP POP POP SWAP3 SWAP2 POP POP JUMP JUMPDEST PUSH0 PUSH1 0x40 DUP3 ADD SWAP1 POP DUP2 DUP2 SUB PUSH0 DUP4 ADD MSTORE PUSH2 0xFDE DUP2 DUP6 PUSH2 0xF6A JUMP JUMPDEST SWAP1 POP DUP2 DUP2 SUB PUSH1 0x20 DUP4 ADD MSTORE PUSH2 0xFF2 DUP2 DUP5 PUSH2 0xF6A JUMP JUMPDEST SWAP1 POP SWAP4 SWAP3 POP POP POP JUMP JUMPDEST PUSH0 DUP2 MLOAD SWAP1 POP SWAP2 SWAP1 POP JUMP JUMPDEST PUSH0 DUP3 DUP3 MSTORE PUSH1 0x20 DUP3 ADD SWAP1 POP SWAP3 SWAP2 POP POP JUMP JUMPDEST DUP3 DUP2 DUP4 MCOPY PUSH0 DUP4 DUP4 ADD MSTORE POP POP POP JUMP JUMPDEST PUSH0 PUSH1 0x1F NOT PUSH1 0x1F DUP4 ADD AND SWAP1 POP SWAP2 SWAP1 POP JUMP JUMPDEST PUSH0 PUSH2 0x103D DUP3 PUSH2 0xFFB JUMP JUMPDEST PUSH2 0x1047 DUP2 DUP6 PUSH2 0x1005 JUMP JUMPDEST SWAP4 POP PUSH2 0x1057 DUP2 DUP6 PUSH1 0x20 DUP7 ADD PUSH2 0x1015 JUMP JUMPDEST PUSH2 0x1060 DUP2 PUSH2 0x1023 JUMP JUMPDEST DUP5 ADD SWAP2 POP POP SWAP3 SWAP2 POP POP JUMP JUMPDEST PUSH0 PUSH1 0xA0 DUP3 ADD SWAP1 POP PUSH2 0x107E PUSH0 DUP4 ADD DUP9 PUSH2 0xB05 JUMP JUMPDEST PUSH2 0x108B PUSH1 0x20 DUP4 ADD DUP8 PUSH2 0xB05 JUMP JUMPDEST PUSH2 0x1098 PUSH1 0x40 DUP4 ADD DUP7 PUSH2 0xE36 JUMP JUMPDEST PUSH2 0x10A5 PUSH1 0x60 DUP4 ADD DUP6 PUSH2 0xE36 JUMP JUMPDEST DUP2 DUP2 SUB PUSH1 0x80 DUP4 ADD MSTORE PUSH2 0x10B7 DUP2 DUP5 PUSH2 0x1033 JUMP JUMPDEST SWAP1 POP SWAP7 SWAP6 POP POP POP POP POP POP JUMP JUMPDEST PUSH0 PUSH32 0xFFFFFFFF00000000000000000000000000000000000000000000000000000000 DUP3 AND SWAP1 POP SWAP2 SWAP1 POP JUMP JUMPDEST PUSH2 0x10F7 DUP2 PUSH2 0x10C3 JUMP JUMPDEST DUP2 EQ PUSH2 0x1101 JUMPI PUSH0 DUP1 REVERT JUMPDEST POP JUMP JUMPDEST PUSH0 DUP2 MLOAD SWAP1 POP PUSH2 0x1112 DUP2 PUSH2 0x10EE JUMP JUMPDEST SWAP3 SWAP2 POP POP JUMP JUMPDEST PUSH0 PUSH1 0x20 DUP3 DUP5 SUB SLT ISZERO PUSH2 0x112D JUMPI PUSH2 0x112C PUSH2 0xA7C JUMP JUMPDEST JUMPDEST PUSH0 PUSH2 0x113A DUP5 DUP3 DUP6 ADD PUSH2 0x1104 JUMP JUMPDEST SWAP2 POP POP SWAP3 SWAP2 POP POP JUMP JUMPDEST PUSH0 PUSH1 0xA0 DUP3 ADD SWAP1 POP PUSH2 0x1156 PUSH0 DUP4 ADD DUP9 PUSH2 0xB05 JUMP JUMPDEST PUSH2 0x1163 PUSH1 0x20 DUP4 ADD DUP8 PUSH2 0xB05 JUMP JUMPDEST DUP2 DUP2 SUB PUSH1 0x40 DUP4 ADD MSTORE PUSH2 0x1175 DUP2 DUP7 PUSH2 0xF6A JUMP JUMPDEST SWAP1 POP DUP2 DUP2 SUB PUSH1 0x60 DUP4 ADD MSTORE PUSH2 0x1189 DUP2 DUP6 PUSH2 0xF6A JUMP JUMPDEST SWAP1 POP DUP2 DUP2 SUB PUSH1 0x80 DUP4 ADD MSTORE PUSH2 0x119D DUP2 DUP5 PUSH2 0x1033 JUMP JUMPDEST SWAP1 POP SWAP7 SWAP6 POP POP POP POP POP POP JUMP JUMPDEST PUSH2 0x274B DUP1 PUSH2 0x11B6 PUSH0 CODECOPY PUSH0 RETURN INVALID PUSH1 0x80 PUSH1 0x40 MSTORE CALLVALUE DUP1 ISZERO PUSH2 0xF JUMPI PUSH0 DUP1 REVERT JUMPDEST POP PUSH1 0x4 CALLDATASIZE LT PUSH2 0xE7 JUMPI PUSH0 CALLDATALOAD PUSH1 0xE0 SHR DUP1 PUSH4 0x715018A6 GT PUSH2 0x8A JUMPI DUP1 PUSH4 0xA22CB465 GT PUSH2 0x64 JUMPI DUP1 PUSH4 0xA22CB465 EQ PUSH2 0x243 JUMPI DUP1 PUSH4 0xE985E9C5 EQ PUSH2 0x25F JUMPI DUP1 PUSH4 0xF242432A EQ PUSH2 0x28F JUMPI DUP1 PUSH4 0xF2FDE38B EQ PUSH2 0x2AB JUMPI PUSH2 0xE7 JUMP JUMPDEST DUP1 PUSH4 0x715018A6 EQ PUSH2 0x1FF JUMPI DUP1 PUSH4 0x731133E9 EQ PUSH2 0x209 JUMPI DUP1 PUSH4 0x8DA5CB5B EQ PUSH2 0x225 JUMPI PUSH2 0xE7 JUMP JUMPDEST DUP1 PUSH4 0xE89341C GT PUSH2 0xC6 JUMPI DUP1 PUSH4 0xE89341C EQ PUSH2 0x167 JUMPI DUP1 PUSH4 0x1F7FDFFA EQ PUSH2 0x197 JUMPI DUP1 PUSH4 0x2EB2C2D6 EQ PUSH2 0x1B3 JUMPI DUP1 PUSH4 0x4E1273F4 EQ PUSH2 0x1CF JUMPI PUSH2 0xE7 JUMP JUMPDEST DUP1 PUSH3 0xFDD58E EQ PUSH2 0xEB JUMPI DUP1 PUSH4 0x1FFC9A7 EQ PUSH2 0x11B JUMPI DUP1 PUSH4 0x2FE5305 EQ PUSH2 0x14B JUMPI JUMPDEST PUSH0 DUP1 REVERT JUMPDEST PUSH2 0x105 PUSH1 0x4 DUP1 CALLDATASIZE SUB DUP2 ADD SWAP1 PUSH2 0x100 SWAP2 SWAP1 PUSH2 0x1765 JUMP JUMPDEST PUSH2 0x2C7 JUMP JUMPDEST PUSH1 0x40 MLOAD PUSH2 0x112 SWAP2 SWAP1 PUSH2 0x17B2 JUMP JUMPDEST PUSH1 0x40 MLOAD DUP1 SWAP2 SUB SWAP1 RETURN JUMPDEST PUSH2 0x135 PUSH1 0x4 DUP1 CALLDATASIZE SUB DUP2 ADD SWAP1 PUSH2 0x130 SWAP2 SWAP1 PUSH2 0x1820 JUMP JUMPDEST PUSH2 0x31C JUMP JUMPDEST PUSH1 0x40 MLOAD PUSH2 0x142 SWAP2 SWAP1 PUSH2 0x1865 JUMP JUMPDEST PUSH1 0x40 MLOAD DUP1 SWAP2 SUB SWAP1 RETURN JUMPDEST PUSH2 0x165 PUSH1 0x4 DUP1 CALLDATASIZE SUB DUP2 ADD SWAP1 PUSH2 0x160 SWAP2 SWAP1 PUSH2 0x19BA JUMP JUMPDEST PUSH2 0x3FD JUMP JUMPDEST STOP JUMPDEST PUSH2 0x181 PUSH1 0x4 DUP1 CALLDATASIZE SUB DUP2 ADD SWAP1 PUSH2 0x17C SWAP2 SWAP1 PUSH2 0x1A01 JUMP JUMPDEST PUSH2 0x411 JUMP JUMPDEST PUSH1 0x40 MLOAD PUSH2 0x18E SWAP2 SWAP1 PUSH2 0x1A8C JUMP JUMPDEST PUSH1 0x40 MLOAD DUP1 SWAP2 SUB SWAP1 RETURN JUMPDEST PUSH2 0x1B1 PUSH1 0x4 DUP1 CALLDATASIZE SUB DUP2 ADD SWAP1 PUSH2 0x1AC SWAP2 SWAP1 PUSH2 0x1C0E JUMP JUMPDEST PUSH2 0x4A3 JUMP JUMPDEST STOP JUMPDEST PUSH2 0x1CD PUSH1 0x4 DUP1 CALLDATASIZE SUB DUP2 ADD SWAP1 PUSH2 0x1C8 SWAP2 SWAP1 PUSH2 0x1CC6 JUMP JUMPDEST PUSH2 0x4BD JUMP JUMPDEST STOP JUMPDEST PUSH2 0x1E9 PUSH1 0x4 DUP1 CALLDATASIZE SUB DUP2 ADD SWAP1 PUSH2 0x1E4 SWAP2 SWAP1 PUSH2 0x1E51 JUMP JUMPDEST PUSH2 0x564 JUMP JUMPDEST PUSH1 0x40 MLOAD PUSH2 0x1F6 SWAP2 SWAP1 PUSH2 0x1F7E JUMP JUMPDEST PUSH1 0x40 MLOAD DUP1 SWAP2 SUB SWAP1 RETURN JUMPDEST PUSH2 0x207 PUSH2 0x66B JUMP JUMPDEST STOP JUMPDEST PUSH2 0x223 PUSH1 0x4 DUP1 CALLDATASIZE SUB DUP2 ADD SWAP1 PUSH2 0x21E SWAP2 SWAP1 PUSH2 0x1F9E JUMP JUMPDEST PUSH2 0x67E JUMP JUMPDEST STOP JUMPDEST PUSH2 0x22D PUSH2 0x698 JUMP JUMPDEST PUSH1 0x40 MLOAD PUSH2 0x23A SWAP2 SWAP1 PUSH2 0x202D JUMP JUMPDEST PUSH1 0x40 MLOAD DUP1 SWAP2 SUB SWAP1 RETURN JUMPDEST PUSH2 0x25D PUSH1 0x4 DUP1 CALLDATASIZE SUB DUP2 ADD SWAP1 PUSH2 0x258 SWAP2 SWAP1 PUSH2 0x2070 JUMP JUMPDEST PUSH2 0x6C0 JUMP JUMPDEST STOP JUMPDEST PUSH2 0x279 PUSH1 0x4 DUP1 CALLDATASIZE SUB DUP2 ADD SWAP1 PUSH2 0x274 SWAP2 SWAP1 PUSH2 0x20AE JUMP JUMPDEST PUSH2 0x6D6 JUMP JUMPDEST PUSH1 0x40 MLOAD PUSH2 0x286 SWAP2 SWAP1 PUSH2 0x1865 JUMP JUMPDEST PUSH1 0x40 MLOAD DUP1 SWAP2 SUB SWAP1 RETURN JUMPDEST PUSH2 0x2A9 PUSH1 0x4 DUP1 CALLDATASIZE SUB DUP2 ADD SWAP1 PUSH2 0x2A4 SWAP2 SWAP1 PUSH2 0x20EC JUMP JUMPDEST PUSH2 0x764 JUMP JUMPDEST STOP JUMPDEST PUSH2 0x2C5 PUSH1 0x4 DUP1 CALLDATASIZE SUB DUP2 ADD SWAP1 PUSH2 0x2C0 SWAP2 SWAP1 PUSH2 0x217F JUMP JUMPDEST PUSH2 0x80B JUMP JUMPDEST STOP JUMPDEST PUSH0 DUP1 PUSH0 DUP4 DUP2 MSTORE PUSH1 0x20 ADD SWAP1 DUP2 MSTORE PUSH1 0x20 ADD PUSH0 KECCAK256 PUSH0 DUP5 PUSH20 0xFFFFFFFFFFFFFFFFFFFFFFFFFFFFFFFFFFFFFFFF AND PUSH20 0xFFFFFFFFFFFFFFFFFFFFFFFFFFFFFFFFFFFFFFFF AND DUP2 MSTORE PUSH1 0x20 ADD SWAP1 DUP2 MSTORE PUSH1 0x20 ADD PUSH0 KECCAK256 SLOAD SWAP1 POP SWAP3 SWAP2 POP POP JUMP JUMPDEST PUSH0 PUSH32 0xD9B67A2600000000000000000000000000000000000000000000000000000000 PUSH28 0xFFFFFFFFFFFFFFFFFFFFFFFFFFFFFFFFFFFFFFFFFFFFFFFFFFFFFFFF NOT AND DUP3 PUSH28 0xFFFFFFFFFFFFFFFFFFFFFFFFFFFFFFFFFFFFFFFFFFFFFFFFFFFFFFFF NOT AND EQ DUP1 PUSH2 0x3E6 JUMPI POP PUSH32 0xE89341C00000000000000000000000000000000000000000000000000000000 PUSH28 0xFFFFFFFFFFFFFFFFFFFFFFFFFFFFFFFFFFFFFFFFFFFFFFFFFFFFFFFF NOT AND DUP3 PUSH28 0xFFFFFFFFFFFFFFFFFFFFFFFFFFFFFFFFFFFFFFFFFFFFFFFFFFFFFFFF NOT AND EQ JUMPDEST DUP1 PUSH2 0x3F6 JUMPI POP PUSH2 0x3F5 DUP3 PUSH2 0x88F JUMP JUMPDEST JUMPDEST SWAP1 POP SWAP2 SWAP1 POP JUMP JUMPDEST PUSH2 0x405 PUSH2 0x8F8 JUMP JUMPDEST PUSH2 0x40E DUP2 PUSH2 0x97F JUMP JUMPDEST POP JUMP JUMPDEST PUSH1 0x60 PUSH1 0x2 DUP1 SLOAD PUSH2 0x420 SWAP1 PUSH2 0x21D7 JUMP JUMPDEST DUP1 PUSH1 0x1F ADD PUSH1 0x20 DUP1 SWAP2 DIV MUL PUSH1 0x20 ADD PUSH1 0x40 MLOAD SWAP1 DUP2 ADD PUSH1 0x40 MSTORE DUP1 SWAP3 SWAP2 SWAP1 DUP2 DUP2 MSTORE PUSH1 0x20 ADD DUP3 DUP1 SLOAD PUSH2 0x44C SWAP1 PUSH2 0x21D7 JUMP JUMPDEST DUP1 ISZERO PUSH2 0x497 JUMPI DUP1 PUSH1 0x1F LT PUSH2 0x46E JUMPI PUSH2 0x100 DUP1 DUP4 SLOAD DIV MUL DUP4 MSTORE SWAP2 PUSH1 0x20 ADD SWAP2 PUSH2 0x497 JUMP JUMPDEST DUP3 ADD SWAP2 SWAP1 PUSH0 MSTORE PUSH1 0x20 PUSH0 KECCAK256 SWAP1 JUMPDEST DUP2 SLOAD DUP2 MSTORE SWAP1 PUSH1 0x1 ADD SWAP1 PUSH1 0x20 ADD DUP1 DUP4 GT PUSH2 0x47A JUMPI DUP3 SWAP1 SUB PUSH1 0x1F AND DUP3 ADD SWAP2 JUMPDEST POP POP POP POP POP SWAP1 POP SWAP2 SWAP1 POP JUMP JUMPDEST PUSH2 0x4AB PUSH2 0x8F8 JUMP JUMPDEST PUSH2 0x4B7 DUP5 DUP5 DUP5 DUP5 PUSH2 0x992 JUMP JUMPDEST POP POP POP POP JUMP JUMPDEST PUSH0 PUSH2 0x4C6 PUSH2 0xA15 JUMP JUMPDEST SWAP1 POP DUP1 PUSH20 0xFFFFFFFFFFFFFFFFFFFFFFFFFFFFFFFFFFFFFFFF AND DUP7 PUSH20 0xFFFFFFFFFFFFFFFFFFFFFFFFFFFFFFFFFFFFFFFF AND EQ ISZERO DUP1 ISZERO PUSH2 0x50B JUMPI POP PUSH2 0x509 DUP7 DUP3 PUSH2 0x6D6 JUMP JUMPDEST ISZERO JUMPDEST ISZERO PUSH2 0x54F JUMPI DUP1 DUP7 PUSH1 0x40 MLOAD PUSH32 0xE237D92200000000000000000000000000000000000000000000000000000000 DUP2 MSTORE PUSH1 0x4 ADD PUSH2 0x546 SWAP3 SWAP2 SWAP1 PUSH2 0x2207 JUMP JUMPDEST PUSH1 0x40 MLOAD DUP1 SWAP2 SUB SWAP1 REVERT JUMPDEST PUSH2 0x55C DUP7 DUP7 DUP7 DUP7 DUP7 PUSH2 0xA1C JUMP JUMPDEST POP POP POP POP POP POP JUMP JUMPDEST PUSH1 0x60 DUP2 MLOAD DUP4 MLOAD EQ PUSH2 0x5B0 JUMPI DUP2 MLOAD DUP4 MLOAD PUSH1 0x40 MLOAD PUSH32 0x5B05999100000000000000000000000000000000000000000000000000000000 DUP2 MSTORE PUSH1 0x4 ADD PUSH2 0x5A7 SWAP3 SWAP2 SWAP1 PUSH2 0x222E JUMP JUMPDEST PUSH1 0x40 MLOAD DUP1 SWAP2 SUB SWAP1 REVERT JUMPDEST PUSH0 DUP4 MLOAD PUSH8 0xFFFFFFFFFFFFFFFF DUP2 GT ISZERO PUSH2 0x5CC JUMPI PUSH2 0x5CB PUSH2 0x1896 JUMP JUMPDEST JUMPDEST PUSH1 0x40 MLOAD SWAP1 DUP1 DUP3 MSTORE DUP1 PUSH1 0x20 MUL PUSH1 0x20 ADD DUP3 ADD PUSH1 0x40 MSTORE DUP1 ISZERO PUSH2 0x5FA JUMPI DUP2 PUSH1 0x20 ADD PUSH1 0x20 DUP3 MUL DUP1 CALLDATASIZE DUP4 CALLDATACOPY DUP1 DUP3 ADD SWAP2 POP POP SWAP1 POP JUMPDEST POP SWAP1 POP PUSH0 JUMPDEST DUP5 MLOAD DUP2 LT ISZERO PUSH2 0x660 JUMPI PUSH2 0x636 PUSH2 0x61E DUP3 DUP8 PUSH2 0xB10 SWAP1 SWAP2 SWAP1 PUSH4 0xFFFFFFFF AND JUMP JUMPDEST PUSH2 0x631 DUP4 DUP8 PUSH2 0xB23 SWAP1 SWAP2 SWAP1 PUSH4 0xFFFFFFFF AND JUMP JUMPDEST PUSH2 0x2C7 JUMP JUMPDEST DUP3 DUP3 DUP2 MLOAD DUP2 LT PUSH2 0x649 JUMPI PUSH2 0x648 PUSH2 0x2255 JUMP JUMPDEST JUMPDEST PUSH1 0x20 MUL PUSH1 0x20 ADD ADD DUP2 DUP2 MSTORE POP POP DUP1 PUSH1 0x1 ADD SWAP1 POP PUSH2 0x5FF JUMP JUMPDEST POP DUP1 SWAP2 POP POP SWAP3 SWAP2 POP POP JUMP JUMPDEST PUSH2 0x673 PUSH2 0x8F8 JUMP JUMPDEST PUSH2 0x67C PUSH0 PUSH2 0xB36 JUMP JUMPDEST JUMP JUMPDEST PUSH2 0x686 PUSH2 0x8F8 JUMP JUMPDEST PUSH2 0x692 DUP5 DUP5 DUP5 DUP5 PUSH2 0xBF9 JUMP JUMPDEST POP POP POP POP JUMP JUMPDEST PUSH0 PUSH1 0x3 PUSH0 SWAP1 SLOAD SWAP1 PUSH2 0x100 EXP SWAP1 DIV PUSH20 0xFFFFFFFFFFFFFFFFFFFFFFFFFFFFFFFFFFFFFFFF AND SWAP1 POP SWAP1 JUMP JUMPDEST PUSH2 0x6D2 PUSH2 0x6CB PUSH2 0xA15 JUMP JUMPDEST DUP4 DUP4 PUSH2 0xC8E JUMP JUMPDEST POP POP JUMP JUMPDEST PUSH0 PUSH1 0x1 PUSH0 DUP5 PUSH20 0xFFFFFFFFFFFFFFFFFFFFFFFFFFFFFFFFFFFFFFFF AND PUSH20 0xFFFFFFFFFFFFFFFFFFFFFFFFFFFFFFFFFFFFFFFF AND DUP2 MSTORE PUSH1 0x20 ADD SWAP1 DUP2 MSTORE PUSH1 0x20 ADD PUSH0 KECCAK256 PUSH0 DUP4 PUSH20 0xFFFFFFFFFFFFFFFFFFFFFFFFFFFFFFFFFFFFFFFF AND PUSH20 0xFFFFFFFFFFFFFFFFFFFFFFFFFFFFFFFFFFFFFFFF AND DUP2 MSTORE PUSH1 0x20 ADD SWAP1 DUP2 MSTORE PUSH1 0x20 ADD PUSH0 KECCAK256 PUSH0 SWAP1 SLOAD SWAP1 PUSH2 0x100 EXP SWAP1 DIV PUSH1 0xFF AND SWAP1 POP SWAP3 SWAP2 POP POP JUMP JUMPDEST PUSH0 PUSH2 0x76D PUSH2 0xA15 JUMP JUMPDEST SWAP1 POP DUP1 PUSH20 0xFFFFFFFFFFFFFFFFFFFFFFFFFFFFFFFFFFFFFFFF AND DUP7 PUSH20 0xFFFFFFFFFFFFFFFFFFFFFFFFFFFFFFFFFFFFFFFF AND EQ ISZERO DUP1 ISZERO PUSH2 0x7B2 JUMPI POP PUSH2 0x7B0 DUP7 DUP3 PUSH2 0x6D6 JUMP JUMPDEST ISZERO JUMPDEST ISZERO PUSH2 0x7F6 JUMPI DUP1 DUP7 PUSH1 0x40 MLOAD PUSH32 0xE237D92200000000000000000000000000000000000000000000000000000000 DUP2 MSTORE PUSH1 0x4 ADD PUSH2 0x7ED SWAP3 SWAP2 SWAP1 PUSH2 0x2207 JUMP JUMPDEST PUSH1 0x40 MLOAD DUP1 SWAP2 SUB SWAP1 REVERT JUMPDEST PUSH2 0x803 DUP7 DUP7 DUP7 DUP7 DUP7 PUSH2 0xDF7 JUMP JUMPDEST POP POP POP POP POP POP JUMP JUMPDEST PUSH2 0x813 PUSH2 0x8F8 JUMP JUMPDEST PUSH0 PUSH20 0xFFFFFFFFFFFFFFFFFFFFFFFFFFFFFFFFFFFFFFFF AND DUP2 PUSH20 0xFFFFFFFFFFFFFFFFFFFFFFFFFFFFFFFFFFFFFFFF AND SUB PUSH2 0x883 JUMPI PUSH0 PUSH1 0x40 MLOAD PUSH32 0x1E4FBDF700000000000000000000000000000000000000000000000000000000 DUP2 MSTORE PUSH1 0x4 ADD PUSH2 0x87A SWAP2 SWAP1 PUSH2 0x202D JUMP JUMPDEST PUSH1 0x40 MLOAD DUP1 SWAP2 SUB SWAP1 REVERT JUMPDEST PUSH2 0x88C DUP2 PUSH2 0xB36 JUMP JUMPDEST POP JUMP JUMPDEST PUSH0 PUSH32 0x1FFC9A700000000000000000000000000000000000000000000000000000000 PUSH28 0xFFFFFFFFFFFFFFFFFFFFFFFFFFFFFFFFFFFFFFFFFFFFFFFFFFFFFFFF NOT AND DUP3 PUSH28 0xFFFFFFFFFFFFFFFFFFFFFFFFFFFFFFFFFFFFFFFFFFFFFFFFFFFFFFFF NOT AND EQ SWAP1 POP SWAP2 SWAP1 POP JUMP JUMPDEST PUSH2 0x900 PUSH2 0xA15 JUMP JUMPDEST PUSH20 0xFFFFFFFFFFFFFFFFFFFFFFFFFFFFFFFFFFFFFFFF AND PUSH2 0x91E PUSH2 0x698 JUMP JUMPDEST PUSH20 0xFFFFFFFFFFFFFFFFFFFFFFFFFFFFFFFFFFFFFFFF AND EQ PUSH2 0x97D JUMPI PUSH2 0x941 PUSH2 0xA15 JUMP JUMPDEST PUSH1 0x40 MLOAD PUSH32 0x118CDAA700000000000000000000000000000000000000000000000000000000 DUP2 MSTORE PUSH1 0x4 ADD PUSH2 0x974 SWAP2 SWAP1 PUSH2 0x202D JUMP JUMPDEST PUSH1 0x40 MLOAD DUP1 SWAP2 SUB SWAP1 REVERT JUMPDEST JUMP JUMPDEST DUP1 PUSH1 0x2 SWAP1 DUP2 PUSH2 0x98E SWAP2 SWAP1 PUSH2 0x241F JUMP JUMPDEST POP POP JUMP JUMPDEST PUSH0 PUSH20 0xFFFFFFFFFFFFFFFFFFFFFFFFFFFFFFFFFFFFFFFF AND DUP5 PUSH20 0xFFFFFFFFFFFFFFFFFFFFFFFFFFFFFFFFFFFFFFFF AND SUB PUSH2 0xA02 JUMPI PUSH0 PUSH1 0x40 MLOAD PUSH32 0x57F447CE00000000000000000000000000000000000000000000000000000000 DUP2 MSTORE PUSH1 0x4 ADD PUSH2 0x9F9 SWAP2 SWAP1 PUSH2 0x202D JUMP JUMPDEST PUSH1 0x40 MLOAD DUP1 SWAP2 SUB SWAP1 REVERT JUMPDEST PUSH2 0xA0F PUSH0 DUP6 DUP6 DUP6 DUP6 PUSH2 0xEFD JUMP JUMPDEST POP POP POP POP JUMP JUMPDEST PUSH0 CALLER SWAP1 POP SWAP1 JUMP JUMPDEST PUSH0 PUSH20 0xFFFFFFFFFFFFFFFFFFFFFFFFFFFFFFFFFFFFFFFF AND DUP5 PUSH20 0xFFFFFFFFFFFFFFFFFFFFFFFFFFFFFFFFFFFFFFFF AND SUB PUSH2 0xA8C JUMPI PUSH0 PUSH1 0x40 MLOAD PUSH32 0x57F447CE00000000000000000000000000000000000000000000000000000000 DUP2 MSTORE PUSH1 0x4 ADD PUSH2 0xA83 SWAP2 SWAP1 PUSH2 0x202D JUMP JUMPDEST PUSH1 0x40 MLOAD DUP1 SWAP2 SUB SWAP1 REVERT JUMPDEST PUSH0 PUSH20 0xFFFFFFFFFFFFFFFFFFFFFFFFFFFFFFFFFFFFFFFF AND DUP6 PUSH20 0xFFFFFFFFFFFFFFFFFFFFFFFFFFFFFFFFFFFFFFFF AND SUB PUSH2 0xAFC JUMPI PUSH0 PUSH1 0x40 MLOAD PUSH32 0x1A8351400000000000000000000000000000000000000000000000000000000 DUP2 MSTORE PUSH1 0x4 ADD PUSH2 0xAF3 SWAP2 SWAP1 PUSH2 0x202D JUMP JUMPDEST PUSH1 0x40 MLOAD DUP1 SWAP2 SUB SWAP1 REVERT JUMPDEST PUSH2 0xB09 DUP6 DUP6 DUP6 DUP6 DUP6 PUSH2 0xEFD JUMP JUMPDEST POP POP POP POP POP JUMP JUMPDEST PUSH0 PUSH1 0x20 DUP3 MUL PUSH1 0x20 DUP5 ADD ADD MLOAD SWAP1 POP SWAP3 SWAP2 POP POP JUMP JUMPDEST PUSH0 PUSH1 0x20 DUP3 MUL PUSH1 0x20 DUP5 ADD ADD MLOAD SWAP1 POP SWAP3 SWAP2 POP POP JUMP JUMPDEST PUSH0 PUSH1 0x3 PUSH0 SWAP1 SLOAD SWAP1 PUSH2 0x100 EXP SWAP1 DIV PUSH20 0xFFFFFFFFFFFFFFFFFFFFFFFFFFFFFFFFFFFFFFFF AND SWAP1 POP DUP2 PUSH1 0x3 PUSH0 PUSH2 0x100 EXP DUP2 SLOAD DUP2 PUSH20 0xFFFFFFFFFFFFFFFFFFFFFFFFFFFFFFFFFFFFFFFF MUL NOT AND SWAP1 DUP4 PUSH20 0xFFFFFFFFFFFFFFFFFFFFFFFFFFFFFFFFFFFFFFFF AND MUL OR SWAP1 SSTORE POP DUP2 PUSH20 0xFFFFFFFFFFFFFFFFFFFFFFFFFFFFFFFFFFFFFFFF AND DUP2 PUSH20 0xFFFFFFFFFFFFFFFFFFFFFFFFFFFFFFFFFFFFFFFF AND PUSH32 0x8BE0079C531659141344CD1FD0A4F28419497F9722A3DAAFE3B4186F6B6457E0 PUSH1 0x40 MLOAD PUSH1 0x40 MLOAD DUP1 SWAP2 SUB SWAP1 LOG3 POP POP JUMP JUMPDEST PUSH0 PUSH20 0xFFFFFFFFFFFFFFFFFFFFFFFFFFFFFFFFFFFFFFFF AND DUP5 PUSH20 0xFFFFFFFFFFFFFFFFFFFFFFFFFFFFFFFFFFFFFFFF AND SUB PUSH2 0xC69 JUMPI PUSH0 PUSH1 0x40 MLOAD PUSH32 0x57F447CE00000000000000000000000000000000000000000000000000000000 DUP2 MSTORE PUSH1 0x4 ADD PUSH2 0xC60 SWAP2 SWAP1 PUSH2 0x202D JUMP JUMPDEST PUSH1 0x40 MLOAD DUP1 SWAP2 SUB SWAP1 REVERT JUMPDEST PUSH0 DUP1 PUSH2 0xC75 DUP6 DUP6 PUSH2 0xFA9 JUMP JUMPDEST SWAP2 POP SWAP2 POP PUSH2 0xC86 PUSH0 DUP8 DUP5 DUP5 DUP8 PUSH2 0xEFD JUMP JUMPDEST POP POP POP POP POP POP JUMP JUMPDEST PUSH0 PUSH20 0xFFFFFFFFFFFFFFFFFFFFFFFFFFFFFFFFFFFFFFFF AND DUP3 PUSH20 0xFFFFFFFFFFFFFFFFFFFFFFFFFFFFFFFFFFFFFFFF AND SUB PUSH2 0xCFE JUMPI PUSH0 PUSH1 0x40 MLOAD PUSH32 0xCED3E10000000000000000000000000000000000000000000000000000000000 DUP2 MSTORE PUSH1 0x4 ADD PUSH2 0xCF5 SWAP2 SWAP1 PUSH2 0x202D JUMP JUMPDEST PUSH1 0x40 MLOAD DUP1 SWAP2 SUB SWAP1 REVERT JUMPDEST DUP1 PUSH1 0x1 PUSH0 DUP6 PUSH20 0xFFFFFFFFFFFFFFFFFFFFFFFFFFFFFFFFFFFFFFFF AND PUSH20 0xFFFFFFFFFFFFFFFFFFFFFFFFFFFFFFFFFFFFFFFF AND DUP2 MSTORE PUSH1 0x20 ADD SWAP1 DUP2 MSTORE PUSH1 0x20 ADD PUSH0 KECCAK256 PUSH0 DUP5 PUSH20 0xFFFFFFFFFFFFFFFFFFFFFFFFFFFFFFFFFFFFFFFF AND PUSH20 0xFFFFFFFFFFFFFFFFFFFFFFFFFFFFFFFFFFFFFFFF AND DUP2 MSTORE PUSH1 0x20 ADD SWAP1 DUP2 MSTORE PUSH1 0x20 ADD PUSH0 KECCAK256 PUSH0 PUSH2 0x100 EXP DUP2 SLOAD DUP2 PUSH1 0xFF MUL NOT AND SWAP1 DUP4 ISZERO ISZERO MUL OR SWAP1 SSTORE POP DUP2 PUSH20 0xFFFFFFFFFFFFFFFFFFFFFFFFFFFFFFFFFFFFFFFF AND DUP4 PUSH20 0xFFFFFFFFFFFFFFFFFFFFFFFFFFFFFFFFFFFFFFFF AND PUSH32 0x17307EAB39AB6107E8899845AD3D59BD9653F200F220920489CA2B5937696C31 DUP4 PUSH1 0x40 MLOAD PUSH2 0xDEA SWAP2 SWAP1 PUSH2 0x1865 JUMP JUMPDEST PUSH1 0x40 MLOAD DUP1 SWAP2 SUB SWAP1 LOG3 POP POP POP JUMP JUMPDEST PUSH0 PUSH20 0xFFFFFFFFFFFFFFFFFFFFFFFFFFFFFFFFFFFFFFFF AND DUP5 PUSH20 0xFFFFFFFFFFFFFFFFFFFFFFFFFFFFFFFFFFFFFFFF AND SUB PUSH2 0xE67 JUMPI PUSH0 PUSH1 0x40 MLOAD PUSH32 0x57F447CE00000000000000000000000000000000000000000000000000000000 DUP2 MSTORE PUSH1 0x4 ADD PUSH2 0xE5E SWAP2 SWAP1 PUSH2 0x202D JUMP JUMPDEST PUSH1 0x40 MLOAD DUP1 SWAP2 SUB SWAP1 REVERT JUMPDEST PUSH0 PUSH20 0xFFFFFFFFFFFFFFFFFFFFFFFFFFFFFFFFFFFFFFFF AND DUP6 PUSH20 0xFFFFFFFFFFFFFFFFFFFFFFFFFFFFFFFFFFFFFFFF AND SUB PUSH2 0xED7 JUMPI PUSH0 PUSH1 0x40 MLOAD PUSH32 0x1A8351400000000000000000000000000000000000000000000000000000000 DUP2 MSTORE PUSH1 0x4 ADD PUSH2 0xECE SWAP2 SWAP1 PUSH2 0x202D JUMP JUMPDEST PUSH1 0x40 MLOAD DUP1 SWAP2 SUB SWAP1 REVERT JUMPDEST PUSH0 DUP1 PUSH2 0xEE3 DUP6 DUP6 PUSH2 0xFA9 JUMP JUMPDEST SWAP2 POP SWAP2 POP PUSH2 0xEF4 DUP8 DUP8 DUP5 DUP5 DUP8 PUSH2 0xEFD JUMP JUMPDEST POP POP POP POP POP POP POP JUMP JUMPDEST PUSH2 0xF09 DUP6 DUP6 DUP6 DUP6 PUSH2 0xFD9 JUMP JUMPDEST PUSH0 PUSH20 0xFFFFFFFFFFFFFFFFFFFFFFFFFFFFFFFFFFFFFFFF AND DUP5 PUSH20 0xFFFFFFFFFFFFFFFFFFFFFFFFFFFFFFFFFFFFFFFF AND EQ PUSH2 0xFA2 JUMPI PUSH0 PUSH2 0xF45 PUSH2 0xA15 JUMP JUMPDEST SWAP1 POP PUSH1 0x1 DUP5 MLOAD SUB PUSH2 0xF91 JUMPI PUSH0 PUSH2 0xF64 PUSH0 DUP7 PUSH2 0xB23 SWAP1 SWAP2 SWAP1 PUSH4 0xFFFFFFFF AND JUMP JUMPDEST SWAP1 POP PUSH0 PUSH2 0xF7A PUSH0 DUP7 PUSH2 0xB23 SWAP1 SWAP2 SWAP1 PUSH4 0xFFFFFFFF AND JUMP JUMPDEST SWAP1 POP PUSH2 0xF8A DUP4 DUP10 DUP10 DUP6 DUP6 DUP10 PUSH2 0x1369 JUMP JUMPDEST POP POP PUSH2 0xFA0 JUMP JUMPDEST PUSH2 0xF9F DUP2 DUP8 DUP8 DUP8 DUP8 DUP8 PUSH2 0x1518 JUMP JUMPDEST JUMPDEST POP JUMPDEST POP POP POP POP POP JUMP JUMPDEST PUSH1 0x60 DUP1 PUSH1 0x40 MLOAD SWAP2 POP PUSH1 0x1 DUP3 MSTORE DUP4 PUSH1 0x20 DUP4 ADD MSTORE PUSH1 0x40 DUP3 ADD SWAP1 POP PUSH1 0x1 DUP2 MSTORE DUP3 PUSH1 0x20 DUP3 ADD MSTORE PUSH1 0x40 DUP2 ADD PUSH1 0x40 MSTORE SWAP3 POP SWAP3 SWAP1 POP JUMP JUMPDEST DUP1 MLOAD DUP3 MLOAD EQ PUSH2 0x1023 JUMPI DUP2 MLOAD DUP2 MLOAD PUSH1 0x40 MLOAD PUSH32 0x5B05999100000000000000000000000000000000000000000000000000000000 DUP2 MSTORE PUSH1 0x4 ADD PUSH2 0x101A SWAP3 SWAP2 SWAP1 PUSH2 0x222E JUMP JUMPDEST PUSH1 0x40 MLOAD DUP1 SWAP2 SUB SWAP1 REVERT JUMPDEST PUSH0 PUSH2 0x102C PUSH2 0xA15 JUMP JUMPDEST SWAP1 POP PUSH0 JUMPDEST DUP4 MLOAD DUP2 LT ISZERO PUSH2 0x1228 JUMPI PUSH0 PUSH2 0x104D DUP3 DUP7 PUSH2 0xB23 SWAP1 SWAP2 SWAP1 PUSH4 0xFFFFFFFF AND JUMP JUMPDEST SWAP1 POP PUSH0 PUSH2 0x1063 DUP4 DUP7 PUSH2 0xB23 SWAP1 SWAP2 SWAP1 PUSH4 0xFFFFFFFF AND JUMP JUMPDEST SWAP1 POP PUSH0 PUSH20 0xFFFFFFFFFFFFFFFFFFFFFFFFFFFFFFFFFFFFFFFF AND DUP9 PUSH20 0xFFFFFFFFFFFFFFFFFFFFFFFFFFFFFFFFFFFFFFFF AND EQ PUSH2 0x1186 JUMPI PUSH0 DUP1 PUSH0 DUP5 DUP2 MSTORE PUSH1 0x20 ADD SWAP1 DUP2 MSTORE PUSH1 0x20 ADD PUSH0 KECCAK256 PUSH0 DUP11 PUSH20 0xFFFFFFFFFFFFFFFFFFFFFFFFFFFFFFFFFFFFFFFF AND PUSH20 0xFFFFFFFFFFFFFFFFFFFFFFFFFFFFFFFFFFFFFFFF AND DUP2 MSTORE PUSH1 0x20 ADD SWAP1 DUP2 MSTORE PUSH1 0x20 ADD PUSH0 KECCAK256 SLOAD SWAP1 POP DUP2 DUP2 LT ISZERO PUSH2 0x1132 JUMPI DUP9 DUP2 DUP4 DUP6 PUSH1 0x40 MLOAD PUSH32 0x3DEE4C500000000000000000000000000000000000000000000000000000000 DUP2 MSTORE PUSH1 0x4 ADD PUSH2 0x1129 SWAP5 SWAP4 SWAP3 SWAP2 SWAP1 PUSH2 0x24EE JUMP JUMPDEST PUSH1 0x40 MLOAD DUP1 SWAP2 SUB SWAP1 REVERT JUMPDEST DUP2 DUP2 SUB PUSH0 DUP1 DUP6 DUP2 MSTORE PUSH1 0x20 ADD SWAP1 DUP2 MSTORE PUSH1 0x20 ADD PUSH0 KECCAK256 PUSH0 DUP12 PUSH20 0xFFFFFFFFFFFFFFFFFFFFFFFFFFFFFFFFFFFFFFFF AND PUSH20 0xFFFFFFFFFFFFFFFFFFFFFFFFFFFFFFFFFFFFFFFF AND DUP2 MSTORE PUSH1 0x20 ADD SWAP1 DUP2 MSTORE PUSH1 0x20 ADD PUSH0 KECCAK256 DUP2 SWAP1 SSTORE POP POP JUMPDEST PUSH0 PUSH20 0xFFFFFFFFFFFFFFFFFFFFFFFFFFFFFFFFFFFFFFFF AND DUP8 PUSH20 0xFFFFFFFFFFFFFFFFFFFFFFFFFFFFFFFFFFFFFFFF AND EQ PUSH2 0x121B JUMPI DUP1 PUSH0 DUP1 DUP5 DUP2 MSTORE PUSH1 0x20 ADD SWAP1 DUP2 MSTORE PUSH1 0x20 ADD PUSH0 KECCAK256 PUSH0 DUP10 PUSH20 0xFFFFFFFFFFFFFFFFFFFFFFFFFFFFFFFFFFFFFFFF AND PUSH20 0xFFFFFFFFFFFFFFFFFFFFFFFFFFFFFFFFFFFFFFFF AND DUP2 MSTORE PUSH1 0x20 ADD SWAP1 DUP2 MSTORE PUSH1 0x20 ADD PUSH0 KECCAK256 PUSH0 DUP3 DUP3 SLOAD PUSH2 0x1213 SWAP2 SWAP1 PUSH2 0x255E JUMP JUMPDEST SWAP3 POP POP DUP2 SWAP1 SSTORE POP JUMPDEST POP POP DUP1 PUSH1 0x1 ADD SWAP1 POP PUSH2 0x1030 JUMP JUMPDEST POP PUSH1 0x1 DUP4 MLOAD SUB PUSH2 0x12E3 JUMPI PUSH0 PUSH2 0x1246 PUSH0 DUP6 PUSH2 0xB23 SWAP1 SWAP2 SWAP1 PUSH4 0xFFFFFFFF AND JUMP JUMPDEST SWAP1 POP PUSH0 PUSH2 0x125C PUSH0 DUP6 PUSH2 0xB23 SWAP1 SWAP2 SWAP1 PUSH4 0xFFFFFFFF AND JUMP JUMPDEST SWAP1 POP DUP6 PUSH20 0xFFFFFFFFFFFFFFFFFFFFFFFFFFFFFFFFFFFFFFFF AND DUP8 PUSH20 0xFFFFFFFFFFFFFFFFFFFFFFFFFFFFFFFFFFFFFFFF AND DUP5 PUSH20 0xFFFFFFFFFFFFFFFFFFFFFFFFFFFFFFFFFFFFFFFF AND PUSH32 0xC3D58168C5AE7397731D063D5BBF3D657854427343F4C083240F7AACAA2D0F62 DUP6 DUP6 PUSH1 0x40 MLOAD PUSH2 0x12D4 SWAP3 SWAP2 SWAP1 PUSH2 0x222E JUMP JUMPDEST PUSH1 0x40 MLOAD DUP1 SWAP2 SUB SWAP1 LOG4 POP POP PUSH2 0x1362 JUMP JUMPDEST DUP4 PUSH20 0xFFFFFFFFFFFFFFFFFFFFFFFFFFFFFFFFFFFFFFFF AND DUP6 PUSH20 0xFFFFFFFFFFFFFFFFFFFFFFFFFFFFFFFFFFFFFFFF AND DUP3 PUSH20 0xFFFFFFFFFFFFFFFFFFFFFFFFFFFFFFFFFFFFFFFF AND PUSH32 0x4A39DC06D4C0DBC64B70AF90FD698A233A518AA5D07E595D983B8C0526C8F7FB DUP7 DUP7 PUSH1 0x40 MLOAD PUSH2 0x1359 SWAP3 SWAP2 SWAP1 PUSH2 0x2591 JUMP JUMPDEST PUSH1 0x40 MLOAD DUP1 SWAP2 SUB SWAP1 LOG4 JUMPDEST POP POP POP POP POP JUMP JUMPDEST PUSH0 DUP5 PUSH20 0xFFFFFFFFFFFFFFFFFFFFFFFFFFFFFFFFFFFFFFFF AND EXTCODESIZE GT ISZERO PUSH2 0x1510 JUMPI DUP4 PUSH20 0xFFFFFFFFFFFFFFFFFFFFFFFFFFFFFFFFFFFFFFFF AND PUSH4 0xF23A6E61 DUP8 DUP8 DUP7 DUP7 DUP7 PUSH1 0x40 MLOAD DUP7 PUSH4 0xFFFFFFFF AND PUSH1 0xE0 SHL DUP2 MSTORE PUSH1 0x4 ADD PUSH2 0x13C9 SWAP6 SWAP5 SWAP4 SWAP3 SWAP2 SWAP1 PUSH2 0x2618 JUMP JUMPDEST PUSH1 0x20 PUSH1 0x40 MLOAD DUP1 DUP4 SUB DUP2 PUSH0 DUP8 GAS CALL SWAP3 POP POP POP DUP1 ISZERO PUSH2 0x1404 JUMPI POP PUSH1 0x40 MLOAD RETURNDATASIZE PUSH1 0x1F NOT PUSH1 0x1F DUP3 ADD AND DUP3 ADD DUP1 PUSH1 0x40 MSTORE POP DUP2 ADD SWAP1 PUSH2 0x1401 SWAP2 SWAP1 PUSH2 0x2684 JUMP JUMPDEST PUSH1 0x1 JUMPDEST PUSH2 0x1485 JUMPI RETURNDATASIZE DUP1 PUSH0 DUP2 EQ PUSH2 0x1432 JUMPI PUSH1 0x40 MLOAD SWAP2 POP PUSH1 0x1F NOT PUSH1 0x3F RETURNDATASIZE ADD AND DUP3 ADD PUSH1 0x40 MSTORE RETURNDATASIZE DUP3 MSTORE RETURNDATASIZE PUSH0 PUSH1 0x20 DUP5 ADD RETURNDATACOPY PUSH2 0x1437 JUMP JUMPDEST PUSH1 0x60 SWAP2 POP JUMPDEST POP PUSH0 DUP2 MLOAD SUB PUSH2 0x147D JUMPI DUP5 PUSH1 0x40 MLOAD PUSH32 0x57F447CE00000000000000000000000000000000000000000000000000000000 DUP2 MSTORE PUSH1 0x4 ADD PUSH2 0x1474 SWAP2 SWAP1 PUSH2 0x202D JUMP JUMPDEST PUSH1 0x40 MLOAD DUP1 SWAP2 SUB SWAP1 REVERT JUMPDEST DUP1 MLOAD DUP2 PUSH1 0x20 ADD REVERT JUMPDEST PUSH4 0xF23A6E61 PUSH1 0xE0 SHL PUSH28 0xFFFFFFFFFFFFFFFFFFFFFFFFFFFFFFFFFFFFFFFFFFFFFFFFFFFFFFFF NOT AND DUP2 PUSH28 0xFFFFFFFFFFFFFFFFFFFFFFFFFFFFFFFFFFFFFFFFFFFFFFFFFFFFFFFF NOT AND EQ PUSH2 0x150E JUMPI DUP5 PUSH1 0x40 MLOAD PUSH32 0x57F447CE00000000000000000000000000000000000000000000000000000000 DUP2 MSTORE PUSH1 0x4 ADD PUSH2 0x1505 SWAP2 SWAP1 PUSH2 0x202D JUMP JUMPDEST PUSH1 0x40 MLOAD DUP1 SWAP2 SUB SWAP1 REVERT JUMPDEST POP JUMPDEST POP POP POP POP POP POP JUMP JUMPDEST PUSH0 DUP5 PUSH20 0xFFFFFFFFFFFFFFFFFFFFFFFFFFFFFFFFFFFFFFFF AND EXTCODESIZE GT ISZERO PUSH2 0x16BF JUMPI DUP4 PUSH20 0xFFFFFFFFFFFFFFFFFFFFFFFFFFFFFFFFFFFFFFFF AND PUSH4 0xBC197C81 DUP8 DUP8 DUP7 DUP7 DUP7 PUSH1 0x40 MLOAD DUP7 PUSH4 0xFFFFFFFF AND PUSH1 0xE0 SHL DUP2 MSTORE PUSH1 0x4 ADD PUSH2 0x1578 SWAP6 SWAP5 SWAP4 SWAP3 SWAP2 SWAP1 PUSH2 0x26AF JUMP JUMPDEST PUSH1 0x20 PUSH1 0x40 MLOAD DUP1 DUP4 SUB DUP2 PUSH0 DUP8 GAS CALL SWAP3 POP POP POP DUP1 ISZERO PUSH2 0x15B3 JUMPI POP PUSH1 0x40 MLOAD RETURNDATASIZE PUSH1 0x1F NOT PUSH1 0x1F DUP3 ADD AND DUP3 ADD DUP1 PUSH1 0x40 MSTORE POP DUP2 ADD SWAP1 PUSH2 0x15B0 SWAP2 SWAP1 PUSH2 0x2684 JUMP JUMPDEST PUSH1 0x1 JUMPDEST PUSH2 0x1634 JUMPI RETURNDATASIZE DUP1 PUSH0 DUP2 EQ PUSH2 0x15E1 JUMPI PUSH1 0x40 MLOAD SWAP2 POP PUSH1 0x1F NOT PUSH1 0x3F RETURNDATASIZE ADD AND DUP3 ADD PUSH1 0x40 MSTORE RETURNDATASIZE DUP3 MSTORE RETURNDATASIZE PUSH0 PUSH1 0x20 DUP5 ADD RETURNDATACOPY PUSH2 0x15E6 JUMP JUMPDEST PUSH1 0x60 SWAP2 POP JUMPDEST POP PUSH0 DUP2 MLOAD SUB PUSH2 0x162C JUMPI DUP5 PUSH1 0x40 MLOAD PUSH32 0x57F447CE00000000000000000000000000000000000000000000000000000000 DUP2 MSTORE PUSH1 0x4 ADD PUSH2 0x1623 SWAP2 SWAP1 PUSH2 0x202D JUMP JUMPDEST PUSH1 0x40 MLOAD DUP1 SWAP2 SUB SWAP1 REVERT JUMPDEST DUP1 MLOAD DUP2 PUSH1 0x20 ADD REVERT JUMPDEST PUSH4 0xBC197C81 PUSH1 0xE0 SHL PUSH28 0xFFFFFFFFFFFFFFFFFFFFFFFFFFFFFFFFFFFFFFFFFFFFFFFFFFFFFFFF NOT AND DUP2 PUSH28 0xFFFFFFFFFFFFFFFFFFFFFFFFFFFFFFFFFFFFFFFFFFFFFFFFFFFFFFFF NOT AND EQ PUSH2 0x16BD JUMPI DUP5 PUSH1 0x40 MLOAD PUSH32 0x57F447CE00000000000000000000000000000000000000000000000000000000 DUP2 MSTORE PUSH1 0x4 ADD PUSH2 0x16B4 SWAP2 SWAP1 PUSH2 0x202D JUMP JUMPDEST PUSH1 0x40 MLOAD DUP1 SWAP2 SUB SWAP1 REVERT JUMPDEST POP JUMPDEST POP POP POP POP POP POP JUMP JUMPDEST PUSH0 PUSH1 0x40 MLOAD SWAP1 POP SWAP1 JUMP JUMPDEST PUSH0 DUP1 REVERT JUMPDEST PUSH0 DUP1 REVERT JUMPDEST PUSH0 PUSH20 0xFFFFFFFFFFFFFFFFFFFFFFFFFFFFFFFFFFFFFFFF DUP3 AND SWAP1 POP SWAP2 SWAP1 POP JUMP JUMPDEST PUSH0 PUSH2 0x1701 DUP3 PUSH2 0x16D8 JUMP JUMPDEST SWAP1 POP SWAP2 SWAP1 POP JUMP JUMPDEST PUSH2 0x1711 DUP2 PUSH2 0x16F7 JUMP JUMPDEST DUP2 EQ PUSH2 0x171B JUMPI PUSH0 DUP1 REVERT JUMPDEST POP JUMP JUMPDEST PUSH0 DUP2 CALLDATALOAD SWAP1 POP PUSH2 0x172C DUP2 PUSH2 0x1708 JUMP JUMPDEST SWAP3 SWAP2 POP POP JUMP JUMPDEST PUSH0 DUP2 SWAP1 POP SWAP2 SWAP1 POP JUMP JUMPDEST PUSH2 0x1744 DUP2 PUSH2 0x1732 JUMP JUMPDEST DUP2 EQ PUSH2 0x174E JUMPI PUSH0 DUP1 REVERT JUMPDEST POP JUMP JUMPDEST PUSH0 DUP2 CALLDATALOAD SWAP1 POP PUSH2 0x175F DUP2 PUSH2 0x173B JUMP JUMPDEST SWAP3 SWAP2 POP POP JUMP JUMPDEST PUSH0 DUP1 PUSH1 0x40 DUP4 DUP6 SUB SLT ISZERO PUSH2 0x177B JUMPI PUSH2 0x177A PUSH2 0x16D0 JUMP JUMPDEST JUMPDEST PUSH0 PUSH2 0x1788 DUP6 DUP3 DUP7 ADD PUSH2 0x171E JUMP JUMPDEST SWAP3 POP POP PUSH1 0x20 PUSH2 0x1799 DUP6 DUP3 DUP7 ADD PUSH2 0x1751 JUMP JUMPDEST SWAP2 POP POP SWAP3 POP SWAP3 SWAP1 POP JUMP JUMPDEST PUSH2 0x17AC DUP2 PUSH2 0x1732 JUMP JUMPDEST DUP3 MSTORE POP POP JUMP JUMPDEST PUSH0 PUSH1 0x20 DUP3 ADD SWAP1 POP PUSH2 0x17C5 PUSH0 DUP4 ADD DUP5 PUSH2 0x17A3 JUMP JUMPDEST SWAP3 SWAP2 POP POP JUMP JUMPDEST PUSH0 PUSH32 0xFFFFFFFF00000000000000000000000000000000000000000000000000000000 DUP3 AND SWAP1 POP SWAP2 SWAP1 POP JUMP JUMPDEST PUSH2 0x17FF DUP2 PUSH2 0x17CB JUMP JUMPDEST DUP2 EQ PUSH2 0x1809 JUMPI PUSH0 DUP1 REVERT JUMPDEST POP JUMP JUMPDEST PUSH0 DUP2 CALLDATALOAD SWAP1 POP PUSH2 0x181A DUP2 PUSH2 0x17F6 JUMP JUMPDEST SWAP3 SWAP2 POP POP JUMP JUMPDEST PUSH0 PUSH1 0x20 DUP3 DUP5 SUB SLT ISZERO PUSH2 0x1835 JUMPI PUSH2 0x1834 PUSH2 0x16D0 JUMP JUMPDEST JUMPDEST PUSH0 PUSH2 0x1842 DUP5 DUP3 DUP6 ADD PUSH2 0x180C JUMP JUMPDEST SWAP2 POP POP SWAP3 SWAP2 POP POP JUMP JUMPDEST PUSH0 DUP2 ISZERO ISZERO SWAP1 POP SWAP2 SWAP1 POP JUMP JUMPDEST PUSH2 0x185F DUP2 PUSH2 0x184B JUMP JUMPDEST DUP3 MSTORE POP POP JUMP JUMPDEST PUSH0 PUSH1 0x20 DUP3 ADD SWAP1 POP PUSH2 0x1878 PUSH0 DUP4 ADD DUP5 PUSH2 0x1856 JUMP JUMPDEST SWAP3 SWAP2 POP POP JUMP JUMPDEST PUSH0 DUP1 REVERT JUMPDEST PUSH0 DUP1 REVERT JUMPDEST PUSH0 PUSH1 0x1F NOT PUSH1 0x1F DUP4 ADD AND SWAP1 POP SWAP2 SWAP1 POP JUMP JUMPDEST PUSH32 0x4E487B7100000000000000000000000000000000000000000000000000000000 PUSH0 MSTORE PUSH1 0x41 PUSH1 0x4 MSTORE PUSH1 0x24 PUSH0 REVERT JUMPDEST PUSH2 0x18CC DUP3 PUSH2 0x1886 JUMP JUMPDEST DUP2 ADD DUP2 DUP2 LT PUSH8 0xFFFFFFFFFFFFFFFF DUP3 GT OR ISZERO PUSH2 0x18EB JUMPI PUSH2 0x18EA PUSH2 0x1896 JUMP JUMPDEST JUMPDEST DUP1 PUSH1 0x40 MSTORE POP POP POP JUMP JUMPDEST PUSH0 PUSH2 0x18FD PUSH2 0x16C7 JUMP JUMPDEST SWAP1 POP PUSH2 0x1909 DUP3 DUP3 PUSH2 0x18C3 JUMP JUMPDEST SWAP2 SWAP1 POP JUMP JUMPDEST PUSH0 PUSH8 0xFFFFFFFFFFFFFFFF DUP3 GT ISZERO PUSH2 0x1928 JUMPI PUSH2 0x1927 PUSH2 0x1896 JUMP JUMPDEST JUMPDEST PUSH2 0x1931 DUP3 PUSH2 0x1886 JUMP JUMPDEST SWAP1 POP PUSH1 0x20 DUP2 ADD SWAP1 POP SWAP2 SWAP1 POP JUMP JUMPDEST DUP3 DUP2 DUP4 CALLDATACOPY PUSH0 DUP4 DUP4 ADD MSTORE POP POP POP JUMP JUMPDEST PUSH0 PUSH2 0x195E PUSH2 0x1959 DUP5 PUSH2 0x190E JUMP JUMPDEST PUSH2 0x18F4 JUMP JUMPDEST SWAP1 POP DUP3 DUP2 MSTORE PUSH1 0x20 DUP2 ADD DUP5 DUP5 DUP5 ADD GT ISZERO PUSH2 0x197A JUMPI PUSH2 0x1979 PUSH2 0x1882 JUMP JUMPDEST JUMPDEST PUSH2 0x1985 DUP5 DUP3 DUP6 PUSH2 0x193E JUMP JUMPDEST POP SWAP4 SWAP3 POP POP POP JUMP JUMPDEST PUSH0 DUP3 PUSH1 0x1F DUP4 ADD SLT PUSH2 0x19A1 JUMPI PUSH2 0x19A0 PUSH2 0x187E JUMP JUMPDEST JUMPDEST DUP2 CALLDATALOAD PUSH2 0x19B1 DUP5 DUP3 PUSH1 0x20 DUP7 ADD PUSH2 0x194C JUMP JUMPDEST SWAP2 POP POP SWAP3 SWAP2 POP POP JUMP JUMPDEST PUSH0 PUSH1 0x20 DUP3 DUP5 SUB SLT ISZERO PUSH2 0x19CF JUMPI PUSH2 0x19CE PUSH2 0x16D0 JUMP JUMPDEST JUMPDEST PUSH0 DUP3 ADD CALLDATALOAD PUSH8 0xFFFFFFFFFFFFFFFF DUP2 GT ISZERO PUSH2 0x19EC JUMPI PUSH2 0x19EB PUSH2 0x16D4 JUMP JUMPDEST JUMPDEST PUSH2 0x19F8 DUP5 DUP3 DUP6 ADD PUSH2 0x198D JUMP JUMPDEST SWAP2 POP POP SWAP3 SWAP2 POP POP JUMP JUMPDEST PUSH0 PUSH1 0x20 DUP3 DUP5 SUB SLT ISZERO PUSH2 0x1A16 JUMPI PUSH2 0x1A15 PUSH2 0x16D0 JUMP JUMPDEST JUMPDEST PUSH0 PUSH2 0x1A23 DUP5 DUP3 DUP6 ADD PUSH2 0x1751 JUMP JUMPDEST SWAP2 POP POP SWAP3 SWAP2 POP POP JUMP JUMPDEST PUSH0 DUP2 MLOAD SWAP1 POP SWAP2 SWAP1 POP JUMP JUMPDEST PUSH0 DUP3 DUP3 MSTORE PUSH1 0x20 DUP3 ADD SWAP1 POP SWAP3 SWAP2 POP POP JUMP JUMPDEST DUP3 DUP2 DUP4 MCOPY PUSH0 DUP4 DUP4 ADD MSTORE POP POP POP JUMP JUMPDEST PUSH0 PUSH2 0x1A5E DUP3 PUSH2 0x1A2C JUMP JUMPDEST PUSH2 0x1A68 DUP2 DUP6 PUSH2 0x1A36 JUMP JUMPDEST SWAP4 POP PUSH2 0x1A78 DUP2 DUP6 PUSH1 0x20 DUP7 ADD PUSH2 0x1A46 JUMP JUMPDEST PUSH2 0x1A81 DUP2 PUSH2 0x1886 JUMP JUMPDEST DUP5 ADD SWAP2 POP POP SWAP3 SWAP2 POP POP JUMP JUMPDEST PUSH0 PUSH1 0x20 DUP3 ADD SWAP1 POP DUP2 DUP2 SUB PUSH0 DUP4 ADD MSTORE PUSH2 0x1AA4 DUP2 DUP5 PUSH2 0x1A54 JUMP JUMPDEST SWAP1 POP SWAP3 SWAP2 POP POP JUMP JUMPDEST PUSH0 PUSH8 0xFFFFFFFFFFFFFFFF DUP3 GT ISZERO PUSH2 0x1AC6 JUMPI PUSH2 0x1AC5 PUSH2 0x1896 JUMP JUMPDEST JUMPDEST PUSH1 0x20 DUP3 MUL SWAP1 POP PUSH1 0x20 DUP2 ADD SWAP1 POP SWAP2 SWAP1 POP JUMP JUMPDEST PUSH0 DUP1 REVERT JUMPDEST PUSH0 PUSH2 0x1AED PUSH2 0x1AE8 DUP5 PUSH2 0x1AAC JUMP JUMPDEST PUSH2 0x18F4 JUMP JUMPDEST SWAP1 POP DUP1 DUP4 DUP3 MSTORE PUSH1 0x20 DUP3 ADD SWAP1 POP PUSH1 0x20 DUP5 MUL DUP4 ADD DUP6 DUP2 GT ISZERO PUSH2 0x1B10 JUMPI PUSH2 0x1B0F PUSH2 0x1AD7 JUMP JUMPDEST JUMPDEST DUP4 JUMPDEST DUP2 DUP2 LT ISZERO PUSH2 0x1B39 JUMPI DUP1 PUSH2 0x1B25 DUP9 DUP3 PUSH2 0x1751 JUMP JUMPDEST DUP5 MSTORE PUSH1 0x20 DUP5 ADD SWAP4 POP POP PUSH1 0x20 DUP2 ADD SWAP1 POP PUSH2 0x1B12 JUMP JUMPDEST POP POP POP SWAP4 SWAP3 POP POP POP JUMP JUMPDEST PUSH0 DUP3 PUSH1 0x1F DUP4 ADD SLT PUSH2 0x1B57 JUMPI PUSH2 0x1B56 PUSH2 0x187E JUMP JUMPDEST JUMPDEST DUP2 CALLDATALOAD PUSH2 0x1B67 DUP5 DUP3 PUSH1 0x20 DUP7 ADD PUSH2 0x1ADB JUMP JUMPDEST SWAP2 POP POP SWAP3 SWAP2 POP POP JUMP JUMPDEST PUSH0 PUSH8 0xFFFFFFFFFFFFFFFF DUP3 GT ISZERO PUSH2 0x1B8A JUMPI PUSH2 0x1B89 PUSH2 0x1896 JUMP JUMPDEST JUMPDEST PUSH2 0x1B93 DUP3 PUSH2 0x1886 JUMP JUMPDEST SWAP1 POP PUSH1 0x20 DUP2 ADD SWAP1 POP SWAP2 SWAP1 POP JUMP JUMPDEST PUSH0 PUSH2 0x1BB2 PUSH2 0x1BAD DUP5 PUSH2 0x1B70 JUMP JUMPDEST PUSH2 0x18F4 JUMP JUMPDEST SWAP1 POP DUP3 DUP2 MSTORE PUSH1 0x20 DUP2 ADD DUP5 DUP5 DUP5 ADD GT ISZERO PUSH2 0x1BCE JUMPI PUSH2 0x1BCD PUSH2 0x1882 JUMP JUMPDEST JUMPDEST PUSH2 0x1BD9 DUP5 DUP3 DUP6 PUSH2 0x193E JUMP JUMPDEST POP SWAP4 SWAP3 POP POP POP JUMP JUMPDEST PUSH0 DUP3 PUSH1 0x1F DUP4 ADD SLT PUSH2 0x1BF5 JUMPI PUSH2 0x1BF4 PUSH2 0x187E JUMP JUMPDEST JUMPDEST DUP2 CALLDATALOAD PUSH2 0x1C05 DUP5 DUP3 PUSH1 0x20 DUP7 ADD PUSH2 0x1BA0 JUMP JUMPDEST SWAP2 POP POP SWAP3 SWAP2 POP POP JUMP JUMPDEST PUSH0 DUP1 PUSH0 DUP1 PUSH1 0x80 DUP6 DUP8 SUB SLT ISZERO PUSH2 0x1C26 JUMPI PUSH2 0x1C25 PUSH2 0x16D0 JUMP JUMPDEST JUMPDEST PUSH0 PUSH2 0x1C33 DUP8 DUP3 DUP9 ADD PUSH2 0x171E JUMP JUMPDEST SWAP5 POP POP PUSH1 0x20 DUP6 ADD CALLDATALOAD PUSH8 0xFFFFFFFFFFFFFFFF DUP2 GT ISZERO PUSH2 0x1C54 JUMPI PUSH2 0x1C53 PUSH2 0x16D4 JUMP JUMPDEST JUMPDEST PUSH2 0x1C60 DUP8 DUP3 DUP9 ADD PUSH2 0x1B43 JUMP JUMPDEST SWAP4 POP POP PUSH1 0x40 DUP6 ADD CALLDATALOAD PUSH8 0xFFFFFFFFFFFFFFFF DUP2 GT ISZERO PUSH2 0x1C81 JUMPI PUSH2 0x1C80 PUSH2 0x16D4 JUMP JUMPDEST JUMPDEST PUSH2 0x1C8D DUP8 DUP3 DUP9 ADD PUSH2 0x1B43 JUMP JUMPDEST SWAP3 POP POP PUSH1 0x60 DUP6 ADD CALLDATALOAD PUSH8 0xFFFFFFFFFFFFFFFF DUP2 GT ISZERO PUSH2 0x1CAE JUMPI PUSH2 0x1CAD PUSH2 0x16D4 JUMP JUMPDEST JUMPDEST PUSH2 0x1CBA DUP8 DUP3 DUP9 ADD PUSH2 0x1BE1 JUMP JUMPDEST SWAP2 POP POP SWAP3 SWAP6 SWAP2 SWAP5 POP SWAP3 POP JUMP JUMPDEST PUSH0 DUP1 PUSH0 DUP1 PUSH0 PUSH1 0xA0 DUP7 DUP9 SUB SLT ISZERO PUSH2 0x1CDF JUMPI PUSH2 0x1CDE PUSH2 0x16D0 JUMP JUMPDEST JUMPDEST PUSH0 PUSH2 0x1CEC DUP9 DUP3 DUP10 ADD PUSH2 0x171E JUMP JUMPDEST SWAP6 POP POP PUSH1 0x20 PUSH2 0x1CFD DUP9 DUP3 DUP10 ADD PUSH2 0x171E JUMP JUMPDEST SWAP5 POP POP PUSH1 0x40 DUP7 ADD CALLDATALOAD PUSH8 0xFFFFFFFFFFFFFFFF DUP2 GT ISZERO PUSH2 0x1D1E JUMPI PUSH2 0x1D1D PUSH2 0x16D4 JUMP JUMPDEST JUMPDEST PUSH2 0x1D2A DUP9 DUP3 DUP10 ADD PUSH2 0x1B43 JUMP JUMPDEST SWAP4 POP POP PUSH1 0x60 DUP7 ADD CALLDATALOAD PUSH8 0xFFFFFFFFFFFFFFFF DUP2 GT ISZERO PUSH2 0x1D4B JUMPI PUSH2 0x1D4A PUSH2 0x16D4 JUMP JUMPDEST JUMPDEST PUSH2 0x1D57 DUP9 DUP3 DUP10 ADD PUSH2 0x1B43 JUMP JUMPDEST SWAP3 POP POP PUSH1 0x80 DUP7 ADD CALLDATALOAD PUSH8 0xFFFFFFFFFFFFFFFF DUP2 GT ISZERO PUSH2 0x1D78 JUMPI PUSH2 0x1D77 PUSH2 0x16D4 JUMP JUMPDEST JUMPDEST PUSH2 0x1D84 DUP9 DUP3 DUP10 ADD PUSH2 0x1BE1 JUMP JUMPDEST SWAP2 POP POP SWAP3 SWAP6 POP SWAP3 SWAP6 SWAP1 SWAP4 POP JUMP JUMPDEST PUSH0 PUSH8 0xFFFFFFFFFFFFFFFF DUP3 GT ISZERO PUSH2 0x1DAB JUMPI PUSH2 0x1DAA PUSH2 0x1896 JUMP JUMPDEST JUMPDEST PUSH1 0x20 DUP3 MUL SWAP1 POP PUSH1 0x20 DUP2 ADD SWAP1 POP SWAP2 SWAP1 POP JUMP JUMPDEST PUSH0 PUSH2 0x1DCE PUSH2 0x1DC9 DUP5 PUSH2 0x1D91 JUMP JUMPDEST PUSH2 0x18F4 JUMP JUMPDEST SWAP1 POP DUP1 DUP4 DUP3 MSTORE PUSH1 0x20 DUP3 ADD SWAP1 POP PUSH1 0x20 DUP5 MUL DUP4 ADD DUP6 DUP2 GT ISZERO PUSH2 0x1DF1 JUMPI PUSH2 0x1DF0 PUSH2 0x1AD7 JUMP JUMPDEST JUMPDEST DUP4 JUMPDEST DUP2 DUP2 LT ISZERO PUSH2 0x1E1A JUMPI DUP1 PUSH2 0x1E06 DUP9 DUP3 PUSH2 0x171E JUMP JUMPDEST DUP5 MSTORE PUSH1 0x20 DUP5 ADD SWAP4 POP POP PUSH1 0x20 DUP2 ADD SWAP1 POP PUSH2 0x1DF3 JUMP JUMPDEST POP POP POP SWAP4 SWAP3 POP POP POP JUMP JUMPDEST PUSH0 DUP3 PUSH1 0x1F DUP4 ADD SLT PUSH2 0x1E38 JUMPI PUSH2 0x1E37 PUSH2 0x187E JUMP JUMPDEST JUMPDEST DUP2 CALLDATALOAD PUSH2 0x1E48 DUP5 DUP3 PUSH1 0x20 DUP7 ADD PUSH2 0x1DBC JUMP JUMPDEST SWAP2 POP POP SWAP3 SWAP2 POP POP JUMP JUMPDEST PUSH0 DUP1 PUSH1 0x40 DUP4 DUP6 SUB SLT ISZERO PUSH2 0x1E67 JUMPI PUSH2 0x1E66 PUSH2 0x16D0 JUMP JUMPDEST JUMPDEST PUSH0 DUP4 ADD CALLDATALOAD PUSH8 0xFFFFFFFFFFFFFFFF DUP2 GT ISZERO PUSH2 0x1E84 JUMPI PUSH2 0x1E83 PUSH2 0x16D4 JUMP JUMPDEST JUMPDEST PUSH2 0x1E90 DUP6 DUP3 DUP7 ADD PUSH2 0x1E24 JUMP JUMPDEST SWAP3 POP POP PUSH1 0x20 DUP4 ADD CALLDATALOAD PUSH8 0xFFFFFFFFFFFFFFFF DUP2 GT ISZERO PUSH2 0x1EB1 JUMPI PUSH2 0x1EB0 PUSH2 0x16D4 JUMP JUMPDEST JUMPDEST PUSH2 0x1EBD DUP6 DUP3 DUP7 ADD PUSH2 0x1B43 JUMP JUMPDEST SWAP2 POP POP SWAP3 POP SWAP3 SWAP1 POP JUMP JUMPDEST PUSH0 DUP2 MLOAD SWAP1 POP SWAP2 SWAP1 POP JUMP JUMPDEST PUSH0 DUP3 DUP3 MSTORE PUSH1 0x20 DUP3 ADD SWAP1 POP SWAP3 SWAP2 POP POP JUMP JUMPDEST PUSH0 DUP2 SWAP1 POP PUSH1 0x20 DUP3 ADD SWAP1 POP SWAP2 SWAP1 POP JUMP JUMPDEST PUSH2 0x1EF9 DUP2 PUSH2 0x1732 JUMP JUMPDEST DUP3 MSTORE POP POP JUMP JUMPDEST PUSH0 PUSH2 0x1F0A DUP4 DUP4 PUSH2 0x1EF0 JUMP JUMPDEST PUSH1 0x20 DUP4 ADD SWAP1 POP SWAP3 SWAP2 POP POP JUMP JUMPDEST PUSH0 PUSH1 0x20 DUP3 ADD SWAP1 POP SWAP2 SWAP1 POP JUMP JUMPDEST PUSH0 PUSH2 0x1F2C DUP3 PUSH2 0x1EC7 JUMP JUMPDEST PUSH2 0x1F36 DUP2 DUP6 PUSH2 0x1ED1 JUMP JUMPDEST SWAP4 POP PUSH2 0x1F41 DUP4 PUSH2 0x1EE1 JUMP JUMPDEST DUP1 PUSH0 JUMPDEST DUP4 DUP2 LT ISZERO PUSH2 0x1F71 JUMPI DUP2 MLOAD PUSH2 0x1F58 DUP9 DUP3 PUSH2 0x1EFF JUMP JUMPDEST SWAP8 POP PUSH2 0x1F63 DUP4 PUSH2 0x1F16 JUMP JUMPDEST SWAP3 POP POP PUSH1 0x1 DUP2 ADD SWAP1 POP PUSH2 0x1F44 JUMP JUMPDEST POP DUP6 SWAP4 POP POP POP POP SWAP3 SWAP2 POP POP JUMP JUMPDEST PUSH0 PUSH1 0x20 DUP3 ADD SWAP1 POP DUP2 DUP2 SUB PUSH0 DUP4 ADD MSTORE PUSH2 0x1F96 DUP2 DUP5 PUSH2 0x1F22 JUMP JUMPDEST SWAP1 POP SWAP3 SWAP2 POP POP JUMP JUMPDEST PUSH0 DUP1 PUSH0 DUP1 PUSH1 0x80 DUP6 DUP8 SUB SLT ISZERO PUSH2 0x1FB6 JUMPI PUSH2 0x1FB5 PUSH2 0x16D0 JUMP JUMPDEST JUMPDEST PUSH0 PUSH2 0x1FC3 DUP8 DUP3 DUP9 ADD PUSH2 0x171E JUMP JUMPDEST SWAP5 POP POP PUSH1 0x20 PUSH2 0x1FD4 DUP8 DUP3 DUP9 ADD PUSH2 0x1751 JUMP JUMPDEST SWAP4 POP POP PUSH1 0x40 PUSH2 0x1FE5 DUP8 DUP3 DUP9 ADD PUSH2 0x1751 JUMP JUMPDEST SWAP3 POP POP PUSH1 0x60 DUP6 ADD CALLDATALOAD PUSH8 0xFFFFFFFFFFFFFFFF DUP2 GT ISZERO PUSH2 0x2006 JUMPI PUSH2 0x2005 PUSH2 0x16D4 JUMP JUMPDEST JUMPDEST PUSH2 0x2012 DUP8 DUP3 DUP9 ADD PUSH2 0x1BE1 JUMP JUMPDEST SWAP2 POP POP SWAP3 SWAP6 SWAP2 SWAP5 POP SWAP3 POP JUMP JUMPDEST PUSH2 0x2027 DUP2 PUSH2 0x16F7 JUMP JUMPDEST DUP3 MSTORE POP POP JUMP JUMPDEST PUSH0 PUSH1 0x20 DUP3 ADD SWAP1 POP PUSH2 0x2040 PUSH0 DUP4 ADD DUP5 PUSH2 0x201E JUMP JUMPDEST SWAP3 SWAP2 POP POP JUMP JUMPDEST PUSH2 0x204F DUP2 PUSH2 0x184B JUMP JUMPDEST DUP2 EQ PUSH2 0x2059 JUMPI PUSH0 DUP1 REVERT JUMPDEST POP JUMP JUMPDEST PUSH0 DUP2 CALLDATALOAD SWAP1 POP PUSH2 0x206A DUP2 PUSH2 0x2046 JUMP JUMPDEST SWAP3 SWAP2 POP POP JUMP JUMPDEST PUSH0 DUP1 PUSH1 0x40 DUP4 DUP6 SUB SLT ISZERO PUSH2 0x2086 JUMPI PUSH2 0x2085 PUSH2 0x16D0 JUMP JUMPDEST JUMPDEST PUSH0 PUSH2 0x2093 DUP6 DUP3 DUP7 ADD PUSH2 0x171E JUMP JUMPDEST SWAP3 POP POP PUSH1 0x20 PUSH2 0x20A4 DUP6 DUP3 DUP7 ADD PUSH2 0x205C JUMP JUMPDEST SWAP2 POP POP SWAP3 POP SWAP3 SWAP1 POP JUMP JUMPDEST PUSH0 DUP1 PUSH1 0x40 DUP4 DUP6 SUB SLT ISZERO PUSH2 0x20C4 JUMPI PUSH2 0x20C3 PUSH2 0x16D0 JUMP JUMPDEST JUMPDEST PUSH0 PUSH2 0x20D1 DUP6 DUP3 DUP7 ADD PUSH2 0x171E JUMP JUMPDEST SWAP3 POP POP PUSH1 0x20 PUSH2 0x20E2 DUP6 DUP3 DUP7 ADD PUSH2 0x171E JUMP JUMPDEST SWAP2 POP POP SWAP3 POP SWAP3 SWAP1 POP JUMP JUMPDEST PUSH0 DUP1 PUSH0 DUP1 PUSH0 PUSH1 0xA0 DUP7 DUP9 SUB SLT ISZERO PUSH2 0x2105 JUMPI PUSH2 0x2104 PUSH2 0x16D0 JUMP JUMPDEST JUMPDEST PUSH0 PUSH2 0x2112 DUP9 DUP3 DUP10 ADD PUSH2 0x171E JUMP JUMPDEST SWAP6 POP POP PUSH1 0x20 PUSH2 0x2123 DUP9 DUP3 DUP10 ADD PUSH2 0x171E JUMP JUMPDEST SWAP5 POP POP PUSH1 0x40 PUSH2 0x2134 DUP9 DUP3 DUP10 ADD PUSH2 0x1751 JUMP JUMPDEST SWAP4 POP POP PUSH1 0x60 PUSH2 0x2145 DUP9 DUP3 DUP10 ADD PUSH2 0x1751 JUMP JUMPDEST SWAP3 POP POP PUSH1 0x80 DUP7 ADD CALLDATALOAD PUSH8 0xFFFFFFFFFFFFFFFF DUP2 GT ISZERO PUSH2 0x2166 JUMPI PUSH2 0x2165 PUSH2 0x16D4 JUMP JUMPDEST JUMPDEST PUSH2 0x2172 DUP9 DUP3 DUP10 ADD PUSH2 0x1BE1 JUMP JUMPDEST SWAP2 POP POP SWAP3 SWAP6 POP SWAP3 SWAP6 SWAP1 SWAP4 POP JUMP JUMPDEST PUSH0 PUSH1 0x20 DUP3 DUP5 SUB SLT ISZERO PUSH2 0x2194 JUMPI PUSH2 0x2193 PUSH2 0x16D0 JUMP JUMPDEST JUMPDEST PUSH0 PUSH2 0x21A1 DUP5 DUP3 DUP6 ADD PUSH2 0x171E JUMP JUMPDEST SWAP2 POP POP SWAP3 SWAP2 POP POP JUMP JUMPDEST PUSH32 0x4E487B7100000000000000000000000000000000000000000000000000000000 PUSH0 MSTORE PUSH1 0x22 PUSH1 0x4 MSTORE PUSH1 0x24 PUSH0 REVERT JUMPDEST PUSH0 PUSH1 0x2 DUP3 DIV SWAP1 POP PUSH1 0x1 DUP3 AND DUP1 PUSH2 0x21EE JUMPI PUSH1 0x7F DUP3 AND SWAP2 POP JUMPDEST PUSH1 0x20 DUP3 LT DUP2 SUB PUSH2 0x2201 JUMPI PUSH2 0x2200 PUSH2 0x21AA JUMP JUMPDEST JUMPDEST POP SWAP2 SWAP1 POP JUMP JUMPDEST PUSH0 PUSH1 0x40 DUP3 ADD SWAP1 POP PUSH2 0x221A PUSH0 DUP4 ADD DUP6 PUSH2 0x201E JUMP JUMPDEST PUSH2 0x2227 PUSH1 0x20 DUP4 ADD DUP5 PUSH2 0x201E JUMP JUMPDEST SWAP4 SWAP3 POP POP POP JUMP JUMPDEST PUSH0 PUSH1 0x40 DUP3 ADD SWAP1 POP PUSH2 0x2241 PUSH0 DUP4 ADD DUP6 PUSH2 0x17A3 JUMP JUMPDEST PUSH2 0x224E PUSH1 0x20 DUP4 ADD DUP5 PUSH2 0x17A3 JUMP JUMPDEST SWAP4 SWAP3 POP POP POP JUMP JUMPDEST PUSH32 0x4E487B7100000000000000000000000000000000000000000000000000000000 PUSH0 MSTORE PUSH1 0x32 PUSH1 0x4 MSTORE PUSH1 0x24 PUSH0 REVERT JUMPDEST PUSH0 DUP2 SWAP1 POP DUP2 PUSH0 MSTORE PUSH1 0x20 PUSH0 KECCAK256 SWAP1 POP SWAP2 SWAP1 POP JUMP JUMPDEST PUSH0 PUSH1 0x20 PUSH1 0x1F DUP4 ADD DIV SWAP1 POP SWAP2 SWAP1 POP JUMP JUMPDEST PUSH0 DUP3 DUP3 SHL SWAP1 POP SWAP3 SWAP2 POP POP JUMP JUMPDEST PUSH0 PUSH1 0x8 DUP4 MUL PUSH2 0x22DE PUSH32 0xFFFFFFFFFFFFFFFFFFFFFFFFFFFFFFFFFFFFFFFFFFFFFFFFFFFFFFFFFFFFFFFF DUP3 PUSH2 0x22A3 JUMP JUMPDEST PUSH2 0x22E8 DUP7 DUP4 PUSH2 0x22A3 JUMP JUMPDEST SWAP6 POP DUP1 NOT DUP5 AND SWAP4 POP DUP1 DUP7 AND DUP5 OR SWAP3 POP POP POP SWAP4 SWAP3 POP POP POP JUMP JUMPDEST PUSH0 DUP2 SWAP1 POP SWAP2 SWAP1 POP JUMP JUMPDEST PUSH0 PUSH2 0x2323 PUSH2 0x231E PUSH2 0x2319 DUP5 PUSH2 0x1732 JUMP JUMPDEST PUSH2 0x2300 JUMP JUMPDEST PUSH2 0x1732 JUMP JUMPDEST SWAP1 POP SWAP2 SWAP1 POP JUMP JUMPDEST PUSH0 DUP2 SWAP1 POP SWAP2 SWAP1 POP JUMP JUMPDEST PUSH2 0x233C DUP4 PUSH2 0x2309 JUMP JUMPDEST PUSH2 0x2350 PUSH2 0x2348 DUP3 PUSH2 0x232A JUMP JUMPDEST DUP5 DUP5 SLOAD PUSH2 0x22AF JUMP JUMPDEST DUP3 SSTORE POP POP POP POP JUMP JUMPDEST PUSH0 SWAP1 JUMP JUMPDEST PUSH2 0x2364 PUSH2 0x2358 JUMP JUMPDEST PUSH2 0x236F DUP2 DUP5 DUP5 PUSH2 0x2333 JUMP JUMPDEST POP POP POP JUMP JUMPDEST JUMPDEST DUP2 DUP2 LT ISZERO PUSH2 0x2392 JUMPI PUSH2 0x2387 PUSH0 DUP3 PUSH2 0x235C JUMP JUMPDEST PUSH1 0x1 DUP2 ADD SWAP1 POP PUSH2 0x2375 JUMP JUMPDEST POP POP JUMP JUMPDEST PUSH1 0x1F DUP3 GT ISZERO PUSH2 0x23D7 JUMPI PUSH2 0x23A8 DUP2 PUSH2 0x2282 JUMP JUMPDEST PUSH2 0x23B1 DUP5 PUSH2 0x2294 JUMP JUMPDEST DUP2 ADD PUSH1 0x20 DUP6 LT ISZERO PUSH2 0x23C0 JUMPI DUP2 SWAP1 POP JUMPDEST PUSH2 0x23D4 PUSH2 0x23CC DUP6 PUSH2 0x2294 JUMP JUMPDEST DUP4 ADD DUP3 PUSH2 0x2374 JUMP JUMPDEST POP POP JUMPDEST POP POP POP JUMP JUMPDEST PUSH0 DUP3 DUP3 SHR SWAP1 POP SWAP3 SWAP2 POP POP JUMP JUMPDEST PUSH0 PUSH2 0x23F7 PUSH0 NOT DUP5 PUSH1 0x8 MUL PUSH2 0x23DC JUMP JUMPDEST NOT DUP1 DUP4 AND SWAP2 POP POP SWAP3 SWAP2 POP POP JUMP JUMPDEST PUSH0 PUSH2 0x240F DUP4 DUP4 PUSH2 0x23E8 JUMP JUMPDEST SWAP2 POP DUP3 PUSH1 0x2 MUL DUP3 OR SWAP1 POP SWAP3 SWAP2 POP POP JUMP JUMPDEST PUSH2 0x2428 DUP3 PUSH2 0x1A2C JUMP JUMPDEST PUSH8 0xFFFFFFFFFFFFFFFF DUP2 GT ISZERO PUSH2 0x2441 JUMPI PUSH2 0x2440 PUSH2 0x1896 JUMP JUMPDEST JUMPDEST PUSH2 0x244B DUP3 SLOAD PUSH2 0x21D7 JUMP JUMPDEST PUSH2 0x2456 DUP3 DUP3 DUP6 PUSH2 0x2396 JUMP JUMPDEST PUSH0 PUSH1 0x20 SWAP1 POP PUSH1 0x1F DUP4 GT PUSH1 0x1 DUP2 EQ PUSH2 0x2487 JUMPI PUSH0 DUP5 ISZERO PUSH2 0x2475 JUMPI DUP3 DUP8 ADD MLOAD SWAP1 POP JUMPDEST PUSH2 0x247F DUP6 DUP3 PUSH2 0x2404 JUMP JUMPDEST DUP7 SSTORE POP PUSH2 0x24E6 JUMP JUMPDEST PUSH1 0x1F NOT DUP5 AND PUSH2 0x2495 DUP7 PUSH2 0x2282 JUMP JUMPDEST PUSH0 JUMPDEST DUP3 DUP2 LT ISZERO PUSH2 0x24BC JUMPI DUP5 DUP10 ADD MLOAD DUP3 SSTORE PUSH1 0x1 DUP3 ADD SWAP2 POP PUSH1 0x20 DUP6 ADD SWAP5 POP PUSH1 0x20 DUP2 ADD SWAP1 POP PUSH2 0x2497 JUMP JUMPDEST DUP7 DUP4 LT ISZERO PUSH2 0x24D9 JUMPI DUP5 DUP10 ADD MLOAD PUSH2 0x24D5 PUSH1 0x1F DUP10 AND DUP3 PUSH2 0x23E8 JUMP JUMPDEST DUP4 SSTORE POP JUMPDEST PUSH1 0x1 PUSH1 0x2 DUP9 MUL ADD DUP9 SSTORE POP POP POP JUMPDEST POP POP POP POP POP POP JUMP JUMPDEST PUSH0 PUSH1 0x80 DUP3 ADD SWAP1 POP PUSH2 0x2501 PUSH0 DUP4 ADD DUP8 PUSH2 0x201E JUMP JUMPDEST PUSH2 0x250E PUSH1 0x20 DUP4 ADD DUP7 PUSH2 0x17A3 JUMP JUMPDEST PUSH2 0x251B PUSH1 0x40 DUP4 ADD DUP6 PUSH2 0x17A3 JUMP JUMPDEST PUSH2 0x2528 PUSH1 0x60 DUP4 ADD DUP5 PUSH2 0x17A3 JUMP JUMPDEST SWAP6 SWAP5 POP POP POP POP POP JUMP JUMPDEST PUSH32 0x4E487B7100000000000000000000000000000000000000000000000000000000 PUSH0 MSTORE PUSH1 0x11 PUSH1 0x4 MSTORE PUSH1 0x24 PUSH0 REVERT JUMPDEST PUSH0 PUSH2 0x2568 DUP3 PUSH2 0x1732 JUMP JUMPDEST SWAP2 POP PUSH2 0x2573 DUP4 PUSH2 0x1732 JUMP JUMPDEST SWAP3 POP DUP3 DUP3 ADD SWAP1 POP DUP1 DUP3 GT ISZERO PUSH2 0x258B JUMPI PUSH2 0x258A PUSH2 0x2531 JUMP JUMPDEST JUMPDEST SWAP3 SWAP2 POP POP JUMP JUMPDEST PUSH0 PUSH1 0x40 DUP3 ADD SWAP1 POP DUP2 DUP2 SUB PUSH0 DUP4 ADD MSTORE PUSH2 0x25A9 DUP2 DUP6 PUSH2 0x1F22 JUMP JUMPDEST SWAP1 POP DUP2 DUP2 SUB PUSH1 0x20 DUP4 ADD MSTORE PUSH2 0x25BD DUP2 DUP5 PUSH2 0x1F22 JUMP JUMPDEST SWAP1 POP SWAP4 SWAP3 POP POP POP JUMP JUMPDEST PUSH0 DUP2 MLOAD SWAP1 POP SWAP2 SWAP1 POP JUMP JUMPDEST PUSH0 DUP3 DUP3 MSTORE PUSH1 0x20 DUP3 ADD SWAP1 POP SWAP3 SWAP2 POP POP JUMP JUMPDEST PUSH0 PUSH2 0x25EA DUP3 PUSH2 0x25C6 JUMP JUMPDEST PUSH2 0x25F4 DUP2 DUP6 PUSH2 0x25D0 JUMP JUMPDEST SWAP4 POP PUSH2 0x2604 DUP2 DUP6 PUSH1 0x20 DUP7 ADD PUSH2 0x1A46 JUMP JUMPDEST PUSH2 0x260D DUP2 PUSH2 0x1886 JUMP JUMPDEST DUP5 ADD SWAP2 POP POP SWAP3 SWAP2 POP POP JUMP JUMPDEST PUSH0 PUSH1 0xA0 DUP3 ADD SWAP1 POP PUSH2 0x262B PUSH0 DUP4 ADD DUP9 PUSH2 0x201E JUMP JUMPDEST PUSH2 0x2638 PUSH1 0x20 DUP4 ADD DUP8 PUSH2 0x201E JUMP JUMPDEST PUSH2 0x2645 PUSH1 0x40 DUP4 ADD DUP7 PUSH2 0x17A3 JUMP JUMPDEST PUSH2 0x2652 PUSH1 0x60 DUP4 ADD DUP6 PUSH2 0x17A3 JUMP JUMPDEST DUP2 DUP2 SUB PUSH1 0x80 DUP4 ADD MSTORE PUSH2 0x2664 DUP2 DUP5 PUSH2 0x25E0 JUMP JUMPDEST SWAP1 POP SWAP7 SWAP6 POP POP POP POP POP POP JUMP JUMPDEST PUSH0 DUP2 MLOAD SWAP1 POP PUSH2 0x267E DUP2 PUSH2 0x17F6 JUMP JUMPDEST SWAP3 SWAP2 POP POP JUMP JUMPDEST PUSH0 PUSH1 0x20 DUP3 DUP5 SUB SLT ISZERO PUSH2 0x2699 JUMPI PUSH2 0x2698 PUSH2 0x16D0 JUMP JUMPDEST JUMPDEST PUSH0 PUSH2 0x26A6 DUP5 DUP3 DUP6 ADD PUSH2 0x2670 JUMP JUMPDEST SWAP2 POP POP SWAP3 SWAP2 POP POP JUMP JUMPDEST PUSH0 PUSH1 0xA0 DUP3 ADD SWAP1 POP PUSH2 0x26C2 PUSH0 DUP4 ADD DUP9 PUSH2 0x201E JUMP JUMPDEST PUSH2 0x26CF PUSH1 0x20 DUP4 ADD DUP8 PUSH2 0x201E JUMP JUMPDEST DUP2 DUP2 SUB PUSH1 0x40 DUP4 ADD MSTORE PUSH2 0x26E1 DUP2 DUP7 PUSH2 0x1F22 JUMP JUMPDEST SWAP1 POP DUP2 DUP2 SUB PUSH1 0x60 DUP4 ADD MSTORE PUSH2 0x26F5 DUP2 DUP6 PUSH2 0x1F22 JUMP JUMPDEST SWAP1 POP DUP2 DUP2 SUB PUSH1 0x80 DUP4 ADD MSTORE PUSH2 0x2709 DUP2 DUP5 PUSH2 0x25E0 JUMP JUMPDEST SWAP1 POP SWAP7 SWAP6 POP POP POP POP POP POP JUMP INVALID LOG2 PUSH5 0x6970667358 0x22 SLT KECCAK256 0xD4 0x24 LOG1 PUSH7 0x330249DD942045 0x27 0xB3 DUP6 DUP2 SWAP3 0xB8 ADDMOD MULMOD 0xE7 INVALID GT JUMP 0x2A 0xD0 EXP 0x4B SWAP11 0xBF REVERT PUSH18 0x9E64736F6C634300081A003368747470733A 0x2F 0x2F PUSH6 0x78616D706C65 0x2E PUSH4 0x6F6D2F6D PUSH6 0x746164617461 0x2F PUSH28 0x69647D2E6A736F6E0000000000000000000000000000000000000000 "
		},
		"gasEstimates": {
			"creation": {
				"codeDepositCost": "2011800",
				"executionCost": "infinite",
				"totalCost": "infinite"
			},
			"external": {
				"balanceOf(address,uint256)": "infinite",
				"balanceOfBatch(address[],uint256[])": "infinite",
				"isApprovedForAll(address,address)": "infinite",
				"mint(address,uint256,uint256,bytes)": "infinite",
				"mintBatch(address,uint256[],uint256[],bytes)": "infinite",
				"owner()": "2582",
				"renounceOwnership()": "infinite",
				"safeBatchTransferFrom(address,address,uint256[],uint256[],bytes)": "infinite",
				"safeTransferFrom(address,address,uint256,uint256,bytes)": "infinite",
				"setApprovalForAll(address,bool)": "infinite",
				"setURI(string)": "infinite",
				"supportsInterface(bytes4)": "809",
				"transferOwnership(address)": "infinite",
				"uri(uint256)": "infinite"
			}
		},
		"methodIdentifiers": {
			"balanceOf(address,uint256)": "00fdd58e",
			"balanceOfBatch(address[],uint256[])": "4e1273f4",
			"isApprovedForAll(address,address)": "e985e9c5",
			"mint(address,uint256,uint256,bytes)": "731133e9",
			"mintBatch(address,uint256[],uint256[],bytes)": "1f7fdffa",
			"owner()": "8da5cb5b",
			"renounceOwnership()": "715018a6",
			"safeBatchTransferFrom(address,address,uint256[],uint256[],bytes)": "2eb2c2d6",
			"safeTransferFrom(address,address,uint256,uint256,bytes)": "f242432a",
			"setApprovalForAll(address,bool)": "a22cb465",
			"setURI(string)": "02fe5305",
			"supportsInterface(bytes4)": "01ffc9a7",
			"transferOwnership(address)": "f2fde38b",
			"uri(uint256)": "0e89341c"
		}
	},
	"abi": [
		{
			"inputs": [
				{
					"internalType": "address",
					"name": "initialOwner",
					"type": "address"
				}
			],
			"stateMutability": "nonpayable",
			"type": "constructor"
		},
		{
			"inputs": [
				{
					"internalType": "address",
					"name": "sender",
					"type": "address"
				},
				{
					"internalType": "uint256",
					"name": "balance",
					"type": "uint256"
				},
				{
					"internalType": "uint256",
					"name": "needed",
					"type": "uint256"
				},
				{
					"internalType": "uint256",
					"name": "tokenId",
					"type": "uint256"
				}
			],
			"name": "ERC1155InsufficientBalance",
			"type": "error"
		},
		{
			"inputs": [
				{
					"internalType": "address",
					"name": "approver",
					"type": "address"
				}
			],
			"name": "ERC1155InvalidApprover",
			"type": "error"
		},
		{
			"inputs": [
				{
					"internalType": "uint256",
					"name": "idsLength",
					"type": "uint256"
				},
				{
					"internalType": "uint256",
					"name": "valuesLength",
					"type": "uint256"
				}
			],
			"name": "ERC1155InvalidArrayLength",
			"type": "error"
		},
		{
			"inputs": [
				{
					"internalType": "address",
					"name": "operator",
					"type": "address"
				}
			],
			"name": "ERC1155InvalidOperator",
			"type": "error"
		},
		{
			"inputs": [
				{
					"internalType": "address",
					"name": "receiver",
					"type": "address"
				}
			],
			"name": "ERC1155InvalidReceiver",
			"type": "error"
		},
		{
			"inputs": [
				{
					"internalType": "address",
					"name": "sender",
					"type": "address"
				}
			],
			"name": "ERC1155InvalidSender",
			"type": "error"
		},
		{
			"inputs": [
				{
					"internalType": "address",
					"name": "operator",
					"type": "address"
				},
				{
					"internalType": "address",
					"name": "owner",
					"type": "address"
				}
			],
			"name": "ERC1155MissingApprovalForAll",
			"type": "error"
		},
		{
			"inputs": [
				{
					"internalType": "address",
					"name": "owner",
					"type": "address"
				}
			],
			"name": "OwnableInvalidOwner",
			"type": "error"
		},
		{
			"inputs": [
				{
					"internalType": "address",
					"name": "account",
					"type": "address"
				}
			],
			"name": "OwnableUnauthorizedAccount",
			"type": "error"
		},
		{
			"anonymous": false,
			"inputs": [
				{
					"indexed": true,
					"internalType": "address",
					"name": "account",
					"type": "address"
				},
				{
					"indexed": true,
					"internalType": "address",
					"name": "operator",
					"type": "address"
				},
				{
					"indexed": false,
					"internalType": "bool",
					"name": "approved",
					"type": "bool"
				}
			],
			"name": "ApprovalForAll",
			"type": "event"
		},
		{
			"anonymous": false,
			"inputs": [
				{
					"indexed": true,
					"internalType": "address",
					"name": "previousOwner",
					"type": "address"
				},
				{
					"indexed": true,
					"internalType": "address",
					"name": "newOwner",
					"type": "address"
				}
			],
			"name": "OwnershipTransferred",
			"type": "event"
		},
		{
			"anonymous": false,
			"inputs": [
				{
					"indexed": true,
					"internalType": "address",
					"name": "operator",
					"type": "address"
				},
				{
					"indexed": true,
					"internalType": "address",
					"name": "from",
					"type": "address"
				},
				{
					"indexed": true,
					"internalType": "address",
					"name": "to",
					"type": "address"
				},
				{
					"indexed": false,
					"internalType": "uint256[]",
					"name": "ids",
					"type": "uint256[]"
				},
				{
					"indexed": false,
					"internalType": "uint256[]",
					"name": "values",
					"type": "uint256[]"
				}
			],
			"name": "TransferBatch",
			"type": "event"
		},
		{
			"anonymous": false,
			"inputs": [
				{
					"indexed": true,
					"internalType": "address",
					"name": "operator",
					"type": "address"
				},
				{
					"indexed": true,
					"internalType": "address",
					"name": "from",
					"type": "address"
				},
				{
					"indexed": true,
					"internalType": "address",
					"name": "to",
					"type": "address"
				},
				{
					"indexed": false,
					"internalType": "uint256",
					"name": "id",
					"type": "uint256"
				},
				{
					"indexed": false,
					"internalType": "uint256",
					"name": "value",
					"type": "uint256"
				}
			],
			"name": "TransferSingle",
			"type": "event"
		},
		{
			"anonymous": false,
			"inputs": [
				{
					"indexed": false,
					"internalType": "string",
					"name": "value",
					"type": "string"
				},
				{
					"indexed": true,
					"internalType": "uint256",
					"name": "id",
					"type": "uint256"
				}
			],
			"name": "URI",
			"type": "event"
		},
		{
			"inputs": [
				{
					"internalType": "address",
					"name": "account",
					"type": "address"
				},
				{
					"internalType": "uint256",
					"name": "id",
					"type": "uint256"
				}
			],
			"name": "balanceOf",
			"outputs": [
				{
					"internalType": "uint256",
					"name": "",
					"type": "uint256"
				}
			],
			"stateMutability": "view",
			"type": "function"
		},
		{
			"inputs": [
				{
					"internalType": "address[]",
					"name": "accounts",
					"type": "address[]"
				},
				{
					"internalType": "uint256[]",
					"name": "ids",
					"type": "uint256[]"
				}
			],
			"name": "balanceOfBatch",
			"outputs": [
				{
					"internalType": "uint256[]",
					"name": "",
					"type": "uint256[]"
				}
			],
			"stateMutability": "view",
			"type": "function"
		},
		{
			"inputs": [
				{
					"internalType": "address",
					"name": "account",
					"type": "address"
				},
				{
					"internalType": "address",
					"name": "operator",
					"type": "address"
				}
			],
			"name": "isApprovedForAll",
			"outputs": [
				{
					"internalType": "bool",
					"name": "",
					"type": "bool"
				}
			],
			"stateMutability": "view",
			"type": "function"
		},
		{
			"inputs": [
				{
					"internalType": "address",
					"name": "account",
					"type": "address"
				},
				{
					"internalType": "uint256",
					"name": "id",
					"type": "uint256"
				},
				{
					"internalType": "uint256",
					"name": "amount",
					"type": "uint256"
				},
				{
					"internalType": "bytes",
					"name": "data",
					"type": "bytes"
				}
			],
			"name": "mint",
			"outputs": [],
			"stateMutability": "nonpayable",
			"type": "function"
		},
		{
			"inputs": [
				{
					"internalType": "address",
					"name": "to",
					"type": "address"
				},
				{
					"internalType": "uint256[]",
					"name": "ids",
					"type": "uint256[]"
				},
				{
					"internalType": "uint256[]",
					"name": "amounts",
					"type": "uint256[]"
				},
				{
					"internalType": "bytes",
					"name": "data",
					"type": "bytes"
				}
			],
			"name": "mintBatch",
			"outputs": [],
			"stateMutability": "nonpayable",
			"type": "function"
		},
		{
			"inputs": [],
			"name": "owner",
			"outputs": [
				{
					"internalType": "address",
					"name": "",
					"type": "address"
				}
			],
			"stateMutability": "view",
			"type": "function"
		},
		{
			"inputs": [],
			"name": "renounceOwnership",
			"outputs": [],
			"stateMutability": "nonpayable",
			"type": "function"
		},
		{
			"inputs": [
				{
					"internalType": "address",
					"name": "from",
					"type": "address"
				},
				{
					"internalType": "address",
					"name": "to",
					"type": "address"
				},
				{
					"internalType": "uint256[]",
					"name": "ids",
					"type": "uint256[]"
				},
				{
					"internalType": "uint256[]",
					"name": "values",
					"type": "uint256[]"
				},
				{
					"internalType": "bytes",
					"name": "data",
					"type": "bytes"
				}
			],
			"name": "safeBatchTransferFrom",
			"outputs": [],
			"stateMutability": "nonpayable",
			"type": "function"
		},
		{
			"inputs": [
				{
					"internalType": "address",
					"name": "from",
					"type": "address"
				},
				{
					"internalType": "address",
					"name": "to",
					"type": "address"
				},
				{
					"internalType": "uint256",
					"name": "id",
					"type": "uint256"
				},
				{
					"internalType": "uint256",
					"name": "value",
					"type": "uint256"
				},
				{
					"internalType": "bytes",
					"name": "data",
					"type": "bytes"
				}
			],
			"name": "safeTransferFrom",
			"outputs": [],
			"stateMutability": "nonpayable",
			"type": "function"
		},
		{
			"inputs": [
				{
					"internalType": "address",
					"name": "operator",
					"type": "address"
				},
				{
					"internalType": "bool",
					"name": "approved",
					"type": "bool"
				}
			],
			"name": "setApprovalForAll",
			"outputs": [],
			"stateMutability": "nonpayable",
			"type": "function"
		},
		{
			"inputs": [
				{
					"internalType": "string",
					"name": "newuri",
					"type": "string"
				}
			],
			"name": "setURI",
			"outputs": [],
			"stateMutability": "nonpayable",
			"type": "function"
		},
		{
			"inputs": [
				{
					"internalType": "bytes4",
					"name": "interfaceId",
					"type": "bytes4"
				}
			],
			"name": "supportsInterface",
			"outputs": [
				{
					"internalType": "bool",
					"name": "",
					"type": "bool"
				}
			],
			"stateMutability": "view",
			"type": "function"
		},
		{
			"inputs": [
				{
					"internalType": "address",
					"name": "newOwner",
					"type": "address"
				}
			],
			"name": "transferOwnership",
			"outputs": [],
			"stateMutability": "nonpayable",
			"type": "function"
		},
		{
			"inputs": [
				{
					"internalType": "uint256",
					"name": "",
					"type": "uint256"
				}
			],
			"name": "uri",
			"outputs": [
				{
					"internalType": "string",
					"name": "",
					"type": "string"
				}
			],
			"stateMutability": "view",
			"type": "function"
		}
	]
}